{
  "contractName": "IdleHelp",
  "abi": [
    {
      "constant": true,
      "inputs": [
        {
          "name": "cToken",
          "type": "address"
        },
        {
          "name": "iToken",
          "type": "address"
        },
        {
          "name": "bestToken",
          "type": "address"
        },
        {
          "name": "totalSupply",
          "type": "uint256"
        }
      ],
      "name": "getPriceInToken",
      "outputs": [
        {
          "name": "tokenPrice",
          "type": "uint256"
        }
      ],
      "payable": false,
      "stateMutability": "view",
      "type": "function"
    },
    {
      "constant": true,
      "inputs": [
        {
          "name": "cToken",
          "type": "address"
        },
        {
          "name": "iToken",
          "type": "address"
        },
        {
          "name": "blocksInAYear",
          "type": "uint256"
        }
      ],
      "name": "getAPRs",
      "outputs": [
        {
          "name": "cApr",
          "type": "uint256"
        },
        {
          "name": "iApr",
          "type": "uint256"
        }
      ],
      "payable": false,
      "stateMutability": "view",
      "type": "function"
    },
    {
      "constant": true,
      "inputs": [
        {
          "name": "cToken",
          "type": "address"
        },
        {
          "name": "iToken",
          "type": "address"
        },
        {
          "name": "blocksInAYear",
          "type": "uint256"
        }
      ],
      "name": "getBestRateToken",
      "outputs": [
        {
          "name": "bestRateToken",
          "type": "address"
        },
        {
          "name": "bestRate",
          "type": "uint256"
        },
        {
          "name": "worstRate",
          "type": "uint256"
        }
      ],
      "payable": false,
      "stateMutability": "view",
      "type": "function"
    },
    {
      "constant": true,
      "inputs": [
        {
          "name": "cToken",
          "type": "address"
        },
        {
          "name": "iToken",
          "type": "address"
        },
        {
          "name": "bestToken",
          "type": "address"
        },
        {
          "name": "blocksInAYear",
          "type": "uint256"
        },
        {
          "name": "minRateDifference",
          "type": "uint256"
        }
      ],
      "name": "rebalanceCheck",
      "outputs": [
        {
          "name": "shouldRebalance",
          "type": "bool"
        },
        {
          "name": "bestTokenAddr",
          "type": "address"
        }
      ],
      "payable": false,
      "stateMutability": "view",
      "type": "function"
    }
  ],
  "bytecode": "0x610b4c610030600b82828239805160001a6073146000811461002057610022565bfe5b5030600052607381538281f3fe7300000000000000000000000000000000000000003014608060405260043610610073576000357c01000000000000000000000000000000000000000000000000000000009004806392ffde6614610078578063a5ae97da14610134578063c8eceb5114610217578063fe26dc40146102b9575b600080fd5b6100e46004803603606081101561008e57600080fd5b81019080803573ffffffffffffffffffffffffffffffffffffffff169060200190929190803573ffffffffffffffffffffffffffffffffffffffff16906020019092919080359060200190929190505050610342565b604051808473ffffffffffffffffffffffffffffffffffffffff1673ffffffffffffffffffffffffffffffffffffffff168152602001838152602001828152602001935050505060405180910390f35b6101ca600480360360a081101561014a57600080fd5b81019080803573ffffffffffffffffffffffffffffffffffffffff169060200190929190803573ffffffffffffffffffffffffffffffffffffffff169060200190929190803573ffffffffffffffffffffffffffffffffffffffff169060200190929190803590602001909291908035906020019092919050505061037f565b60405180831515151581526020018273ffffffffffffffffffffffffffffffffffffffff1673ffffffffffffffffffffffffffffffffffffffff1681526020019250505060405180910390f35b6102a36004803603608081101561022d57600080fd5b81019080803573ffffffffffffffffffffffffffffffffffffffff169060200190929190803573ffffffffffffffffffffffffffffffffffffffff169060200190929190803573ffffffffffffffffffffffffffffffffffffffff1690602001909291908035906020019092919050505061044d565b6040518082815260200191505060405180910390f35b610325600480360360608110156102cf57600080fd5b81019080803573ffffffffffffffffffffffffffffffffffffffff169060200190929190803573ffffffffffffffffffffffffffffffffffffffff169060200190929190803590602001909291905050506107e4565b604051808381526020018281526020019250505060405180910390f35b60008060008060006103558888886107e4565b9150915087945081935080925081811115610374578192508093508694505b505093509350939050565b60008060009150600080610394898988610342565b809350819450829550505050600073ffffffffffffffffffffffffffffffffffffffff168773ffffffffffffffffffffffffffffffffffffffff16148061042457508673ffffffffffffffffffffffffffffffffffffffff168373ffffffffffffffffffffffffffffffffffffffff1614158015610423575081610421868361095890919063ffffffff16565b105b5b1561043a57600193508383935093505050610443565b83839350935050505b9550959350505050565b6000806000808773ffffffffffffffffffffffffffffffffffffffff168673ffffffffffffffffffffffffffffffffffffffff1614156106395760008873ffffffffffffffffffffffffffffffffffffffff1663182df0f56040518163ffffffff167c010000000000000000000000000000000000000000000000000000000002815260040160206040518083038186803b1580156104eb57600080fd5b505afa1580156104ff573d6000803e3d6000fd5b505050506040513d602081101561051557600080fd5b810190808051906020019092919050505090506000670de0b6b3a7640000905061055a61054b82846109e290919063ffffffff16565b826109e290919063ffffffff16565b92508973ffffffffffffffffffffffffffffffffffffffff166370a08231306040518263ffffffff167c0100000000000000000000000000000000000000000000000000000000028152600401808273ffffffffffffffffffffffffffffffffffffffff1673ffffffffffffffffffffffffffffffffffffffff16815260200191505060206040518083038186803b1580156105f557600080fd5b505afa158015610609573d6000803e3d6000fd5b505050506040513d602081101561061f57600080fd5b8101908080519060200190929190505050945050506107af565b8673ffffffffffffffffffffffffffffffffffffffff166370a08231306040518263ffffffff167c0100000000000000000000000000000000000000000000000000000000028152600401808273ffffffffffffffffffffffffffffffffffffffff1673ffffffffffffffffffffffffffffffffffffffff16815260200191505060206040518083038186803b1580156106d257600080fd5b505afa1580156106e6573d6000803e3d6000fd5b505050506040513d60208110156106fc57600080fd5b810190808051906020019092919050505092508673ffffffffffffffffffffffffffffffffffffffff16637ff9b5966040518163ffffffff167c010000000000000000000000000000000000000000000000000000000002815260040160206040518083038186803b15801561077157600080fd5b505afa158015610785573d6000803e3d6000fd5b505050506040513d602081101561079b57600080fd5b810190808051906020019092919050505090505b6107c28382610a7590919063ffffffff16565b91506107d785836109e290919063ffffffff16565b9350505050949350505050565b60008060008573ffffffffffffffffffffffffffffffffffffffff1663ae9d70b06040518163ffffffff167c010000000000000000000000000000000000000000000000000000000002815260040160206040518083038186803b15801561084b57600080fd5b505afa15801561085f573d6000803e3d6000fd5b505050506040513d602081101561087557600080fd5b810190808051906020019092919050505090506108ae60646108a08684610a7590919063ffffffff16565b610a7590919063ffffffff16565b92508473ffffffffffffffffffffffffffffffffffffffff166309ec6b6b6040518163ffffffff167c010000000000000000000000000000000000000000000000000000000002815260040160206040518083038186803b15801561091257600080fd5b505afa158015610926573d6000803e3d6000fd5b505050506040513d602081101561093c57600080fd5b8101908080519060200190929190505050915050935093915050565b60008082840190508381101515156109d8576040517f08c379a000000000000000000000000000000000000000000000000000000000815260040180806020018281038252601b8152602001807f536166654d6174683a206164646974696f6e206f766572666c6f77000000000081525060200191505060405180910390fd5b8091505092915050565b60008082111515610a5b576040517f08c379a000000000000000000000000000000000000000000000000000000000815260040180806020018281038252601a8152602001807f536166654d6174683a206469766973696f6e206279207a65726f00000000000081525060200191505060405180910390fd5b60008284811515610a6857fe5b0490508091505092915050565b600080831415610a885760009050610af9565b60008284029050828482811515610a9b57fe5b04141515610af4576040517f08c379a0000000000000000000000000000000000000000000000000000000008152600401808060200182810382526021815260200180610b006021913960400191505060405180910390fd5b809150505b9291505056fe536166654d6174683a206d756c7469706c69636174696f6e206f766572666c6f77a165627a7a7230582034fad4ceff77bdd7065f7c348e8024b6b0ac8f65d18eb2da72af65ad3a97cadc0029",
  "source": "pragma solidity ^0.5.2;\n\nimport \"./interfaces/CERC20.sol\";\nimport \"./interfaces/iERC20.sol\";\nimport \"openzeppelin-solidity/contracts/token/ERC20/IERC20.sol\";\nimport \"openzeppelin-solidity/contracts/math/SafeMath.sol\";\n\nlibrary IdleHelp {\n  using SafeMath for uint256;\n\n  function getPriceInToken(address cToken, address iToken, address bestToken, uint256 totalSupply)\n    public view\n    returns (uint256 tokenPrice) {\n      // 1IDLEDAI = nav_pool / total_liquidity_moonDAI\n      uint256 poolSupply;\n      uint256 navPool; // net asset value\n      uint256 price;\n\n      if (bestToken == cToken) {\n        // nav == rate di 1cDAI = n DAI * balanceOf(cDAI)\n        uint256 rate = CERC20(cToken).exchangeRateStored(); // 202487304197710837666727644 ->\n        uint256 oneToken = 10**18;\n        price = oneToken.div(rate.div(oneToken));\n        poolSupply = IERC20(cToken).balanceOf(address(this));\n        //\n      } else {\n        poolSupply = IERC20(iToken).balanceOf(address(this));\n        // nav == rate di 1iDAI = n DAI * balanceOf(iDAI)\n        price = iERC20(iToken).tokenPrice(); // 1001495070730287403 -> 1iDAI in wei = 1001495070730287403 DAI\n      }\n\n      navPool = price.mul(poolSupply);\n      tokenPrice = navPool.div(totalSupply); // moonToken price in token wei\n  }\n  function getAPRs(address cToken, address iToken, uint256 blocksInAYear)\n    public view\n    returns (uint256 cApr, uint256 iApr) {\n      uint256 cRate = CERC20(cToken).supplyRatePerBlock(); // interest % per block\n      cApr = cRate.mul(blocksInAYear).mul(100);\n      iApr = iERC20(iToken).supplyInterestRate(); // APR in wei 18 decimals\n  }\n  function getBestRateToken(address cToken, address iToken, uint256 blocksInAYear)\n    public view\n    returns (address bestRateToken, uint256 bestRate, uint256 worstRate) {\n      (uint256 cApr, uint256 iApr) = getAPRs(cToken, iToken, blocksInAYear);\n      bestRateToken = cToken;\n      bestRate = cApr;\n      worstRate = iApr;\n      if (iApr > cApr) {\n        worstRate = cApr;\n        bestRate = iApr;\n        bestRateToken = iToken;\n      }\n  }\n  function rebalanceCheck(address cToken, address iToken, address bestToken, uint256 blocksInAYear, uint256 minRateDifference)\n    public view\n    returns (bool shouldRebalance, address bestTokenAddr) {\n      shouldRebalance = false;\n\n      uint256 _bestRate;\n      uint256 _worstRate;\n      (bestTokenAddr, _bestRate, _worstRate) = getBestRateToken(cToken, iToken, blocksInAYear);\n      if (\n          bestToken == address(0) ||\n          (bestTokenAddr != bestToken && (_worstRate.add(minRateDifference) < _bestRate))) {\n        shouldRebalance = true;\n        return (shouldRebalance, bestTokenAddr);\n      }\n\n      return (shouldRebalance, bestTokenAddr);\n  }\n}\n",
  "sourcePath": "/home/bugman/Projects/idle/contracts/IdleHelp.sol",
  "compiler": {
    "name": "solc",
    "version": "0.5.2+commit.1df8f40c.Emscripten.clang"
  },
  "schemaVersion": "3.0.11",
  "updatedAt": "2019-07-06T10:46:49.870Z",
  "devdoc": {
    "methods": {}
  },
  "userdoc": {
    "methods": {}
  }
}