{
  "contractName": "IdleHelp",
  "abi": [
    {
      "constant": true,
      "inputs": [
        {
          "name": "buffer",
          "type": "bytes"
        }
      ],
      "name": "convertBytesToUint256",
      "outputs": [
        {
          "name": "retval",
          "type": "uint256"
        }
      ],
      "payable": false,
      "stateMutability": "pure",
      "type": "function"
    },
    {
      "constant": true,
      "inputs": [
        {
          "name": "cToken",
          "type": "address"
        },
        {
          "name": "iToken",
          "type": "address"
        },
        {
          "name": "bestToken",
          "type": "address"
        },
        {
          "name": "totalSupply",
          "type": "uint256"
        }
      ],
      "name": "getPriceInToken",
      "outputs": [
        {
          "name": "tokenPrice",
          "type": "uint256"
        }
      ],
      "payable": false,
      "stateMutability": "view",
      "type": "function"
    },
    {
      "constant": true,
      "inputs": [
        {
          "name": "cToken",
          "type": "address"
        },
        {
          "name": "iToken",
          "type": "address"
        },
        {
          "name": "blocksInAYear",
          "type": "uint256"
        }
      ],
      "name": "getAPRs",
      "outputs": [
        {
          "name": "cApr",
          "type": "uint256"
        },
        {
          "name": "iApr",
          "type": "uint256"
        }
      ],
      "payable": false,
      "stateMutability": "view",
      "type": "function"
    },
    {
      "constant": true,
      "inputs": [
        {
          "name": "cToken",
          "type": "address"
        },
        {
          "name": "iToken",
          "type": "address"
        },
        {
          "name": "blocksInAYear",
          "type": "uint256"
        }
      ],
      "name": "getBestRateToken",
      "outputs": [
        {
          "name": "bestRateToken",
          "type": "address"
        },
        {
          "name": "bestRate",
          "type": "uint256"
        },
        {
          "name": "worstRate",
          "type": "uint256"
        }
      ],
      "payable": false,
      "stateMutability": "view",
      "type": "function"
    },
    {
      "constant": true,
      "inputs": [
        {
          "name": "cToken",
          "type": "address"
        },
        {
          "name": "iToken",
          "type": "address"
        },
        {
          "name": "bestToken",
          "type": "address"
        },
        {
          "name": "blocksInAYear",
          "type": "uint256"
        },
        {
          "name": "minRateDifference",
          "type": "uint256"
        }
      ],
      "name": "rebalanceCheck",
      "outputs": [
        {
          "name": "shouldRebalance",
          "type": "bool"
        },
        {
          "name": "bestTokenAddr",
          "type": "address"
        }
      ],
      "payable": false,
      "stateMutability": "view",
      "type": "function"
    }
  ],
  "bytecode": "0x610c34610030600b82828239805160001a6073146000811461002057610022565bfe5b5030600052607381538281f3fe730000000000000000000000000000000000000000301460806040526004361061007e576000357c01000000000000000000000000000000000000000000000000000000009004806392ffde6614610083578063a5ae97da1461013f578063bad84b5b14610222578063c8eceb51146102f1578063fe26dc4014610393575b600080fd5b6100ef6004803603606081101561009957600080fd5b81019080803573ffffffffffffffffffffffffffffffffffffffff169060200190929190803573ffffffffffffffffffffffffffffffffffffffff1690602001909291908035906020019092919050505061041c565b604051808473ffffffffffffffffffffffffffffffffffffffff1673ffffffffffffffffffffffffffffffffffffffff168152602001838152602001828152602001935050505060405180910390f35b6101d5600480360360a081101561015557600080fd5b81019080803573ffffffffffffffffffffffffffffffffffffffff169060200190929190803573ffffffffffffffffffffffffffffffffffffffff169060200190929190803573ffffffffffffffffffffffffffffffffffffffff1690602001909291908035906020019092919080359060200190929190505050610459565b60405180831515151581526020018273ffffffffffffffffffffffffffffffffffffffff1673ffffffffffffffffffffffffffffffffffffffff1681526020019250505060405180910390f35b6102db6004803603602081101561023857600080fd5b810190808035906020019064010000000081111561025557600080fd5b82018360208201111561026757600080fd5b8035906020019184600183028401116401000000008311171561028957600080fd5b91908080601f016020809104026020016040519081016040528093929190818152602001838380828437600081840152601f19601f820116905080830192505050505050509192919290505050610527565b6040518082815260200191505060405180910390f35b61037d6004803603608081101561030757600080fd5b81019080803573ffffffffffffffffffffffffffffffffffffffff169060200190929190803573ffffffffffffffffffffffffffffffffffffffff169060200190929190803573ffffffffffffffffffffffffffffffffffffffff16906020019092919080359060200190929190505050610535565b6040518082815260200191505060405180910390f35b6103ff600480360360608110156103a957600080fd5b81019080803573ffffffffffffffffffffffffffffffffffffffff169060200190929190803573ffffffffffffffffffffffffffffffffffffffff169060200190929190803590602001909291905050506108cc565b604051808381526020018281526020019250505060405180910390f35b600080600080600061042f8888886108cc565b915091508794508193508092508181111561044e578192508093508694505b505093509350939050565b6000806000915060008061046e89898861041c565b809350819450829550505050600073ffffffffffffffffffffffffffffffffffffffff168773ffffffffffffffffffffffffffffffffffffffff1614806104fe57508673ffffffffffffffffffffffffffffffffffffffff168373ffffffffffffffffffffffffffffffffffffffff16141580156104fd5750816104fb8683610a4090919063ffffffff16565b105b5b156105145760019350838393509350505061051d565b83839350935050505b9550959350505050565b600060208201519050919050565b6000806000808773ffffffffffffffffffffffffffffffffffffffff168673ffffffffffffffffffffffffffffffffffffffff1614156107215760008873ffffffffffffffffffffffffffffffffffffffff1663182df0f56040518163ffffffff167c010000000000000000000000000000000000000000000000000000000002815260040160206040518083038186803b1580156105d357600080fd5b505afa1580156105e7573d6000803e3d6000fd5b505050506040513d60208110156105fd57600080fd5b810190808051906020019092919050505090506000670de0b6b3a764000090506106426106338284610aca90919063ffffffff16565b82610aca90919063ffffffff16565b92508973ffffffffffffffffffffffffffffffffffffffff166370a08231306040518263ffffffff167c0100000000000000000000000000000000000000000000000000000000028152600401808273ffffffffffffffffffffffffffffffffffffffff1673ffffffffffffffffffffffffffffffffffffffff16815260200191505060206040518083038186803b1580156106dd57600080fd5b505afa1580156106f1573d6000803e3d6000fd5b505050506040513d602081101561070757600080fd5b810190808051906020019092919050505094505050610897565b8673ffffffffffffffffffffffffffffffffffffffff166370a08231306040518263ffffffff167c0100000000000000000000000000000000000000000000000000000000028152600401808273ffffffffffffffffffffffffffffffffffffffff1673ffffffffffffffffffffffffffffffffffffffff16815260200191505060206040518083038186803b1580156107ba57600080fd5b505afa1580156107ce573d6000803e3d6000fd5b505050506040513d60208110156107e457600080fd5b810190808051906020019092919050505092508673ffffffffffffffffffffffffffffffffffffffff16637ff9b5966040518163ffffffff167c010000000000000000000000000000000000000000000000000000000002815260040160206040518083038186803b15801561085957600080fd5b505afa15801561086d573d6000803e3d6000fd5b505050506040513d602081101561088357600080fd5b810190808051906020019092919050505090505b6108aa8382610b5d90919063ffffffff16565b91506108bf8583610aca90919063ffffffff16565b9350505050949350505050565b60008060008573ffffffffffffffffffffffffffffffffffffffff1663ae9d70b06040518163ffffffff167c010000000000000000000000000000000000000000000000000000000002815260040160206040518083038186803b15801561093357600080fd5b505afa158015610947573d6000803e3d6000fd5b505050506040513d602081101561095d57600080fd5b8101908080519060200190929190505050905061099660646109888684610b5d90919063ffffffff16565b610b5d90919063ffffffff16565b92508473ffffffffffffffffffffffffffffffffffffffff166309ec6b6b6040518163ffffffff167c010000000000000000000000000000000000000000000000000000000002815260040160206040518083038186803b1580156109fa57600080fd5b505afa158015610a0e573d6000803e3d6000fd5b505050506040513d6020811015610a2457600080fd5b8101908080519060200190929190505050915050935093915050565b6000808284019050838110151515610ac0576040517f08c379a000000000000000000000000000000000000000000000000000000000815260040180806020018281038252601b8152602001807f536166654d6174683a206164646974696f6e206f766572666c6f77000000000081525060200191505060405180910390fd5b8091505092915050565b60008082111515610b43576040517f08c379a000000000000000000000000000000000000000000000000000000000815260040180806020018281038252601a8152602001807f536166654d6174683a206469766973696f6e206279207a65726f00000000000081525060200191505060405180910390fd5b60008284811515610b5057fe5b0490508091505092915050565b600080831415610b705760009050610be1565b60008284029050828482811515610b8357fe5b04141515610bdc576040517f08c379a0000000000000000000000000000000000000000000000000000000008152600401808060200182810382526021815260200180610be86021913960400191505060405180910390fd5b809150505b9291505056fe536166654d6174683a206d756c7469706c69636174696f6e206f766572666c6f77a165627a7a7230582038217bcfcfdd433ed9d3d51f3449d2acdffbec1eb51d81a1c7a7ce26fa9c3fb60029",
  "source": "pragma solidity ^0.5.2;\n\nimport \"./interfaces/CERC20.sol\";\nimport \"./interfaces/iERC20.sol\";\nimport \"openzeppelin-solidity/contracts/token/ERC20/IERC20.sol\";\nimport \"openzeppelin-solidity/contracts/math/SafeMath.sol\";\n\nlibrary IdleHelp {\n  using SafeMath for uint256;\n\n  function convertBytesToUint256(bytes memory buffer)\n    public pure\n    returns (uint256 retval) {\n      assembly {\n        retval := mload(add(buffer, 0x20))\n      }\n  }\n\n  function getPriceInToken(address cToken, address iToken, address bestToken, uint256 totalSupply)\n    public view\n    returns (uint256 tokenPrice) {\n      // 1IDLEDAI = nav_pool / total_liquidity_moonDAI\n      uint256 poolSupply;\n      uint256 navPool; // net asset value\n      uint256 price;\n\n      if (bestToken == cToken) {\n        // nav == rate di 1cDAI = n DAI * balanceOf(cDAI)\n        uint256 rate = CERC20(cToken).exchangeRateStored(); // 202487304197710837666727644 ->\n        uint256 oneToken = 10**18;\n        price = oneToken.div(rate.div(oneToken));\n        poolSupply = IERC20(cToken).balanceOf(address(this));\n        //\n      } else {\n        poolSupply = IERC20(iToken).balanceOf(address(this));\n        // nav == rate di 1iDAI = n DAI * balanceOf(iDAI)\n        price = iERC20(iToken).tokenPrice(); // 1001495070730287403 -> 1iDAI in wei = 1001495070730287403 DAI\n      }\n\n      navPool = price.mul(poolSupply);\n      tokenPrice = navPool.div(totalSupply); // moonToken price in token wei\n  }\n  function getAPRs(address cToken, address iToken, uint256 blocksInAYear)\n    public view\n    returns (uint256 cApr, uint256 iApr) {\n      uint256 cRate = CERC20(cToken).supplyRatePerBlock(); // interest % per block\n      cApr = cRate.mul(blocksInAYear).mul(100);\n      iApr = iERC20(iToken).supplyInterestRate(); // APR in wei 18 decimals\n  }\n  function getBestRateToken(address cToken, address iToken, uint256 blocksInAYear)\n    public view\n    returns (address bestRateToken, uint256 bestRate, uint256 worstRate) {\n      (uint256 cApr, uint256 iApr) = getAPRs(cToken, iToken, blocksInAYear);\n      bestRateToken = cToken;\n      bestRate = cApr;\n      worstRate = iApr;\n      if (iApr > cApr) {\n        worstRate = cApr;\n        bestRate = iApr;\n        bestRateToken = iToken;\n      }\n  }\n  function rebalanceCheck(address cToken, address iToken, address bestToken, uint256 blocksInAYear, uint256 minRateDifference)\n    public view\n    returns (bool shouldRebalance, address bestTokenAddr) {\n      shouldRebalance = false;\n\n      uint256 _bestRate;\n      uint256 _worstRate;\n      (bestTokenAddr, _bestRate, _worstRate) = getBestRateToken(cToken, iToken, blocksInAYear);\n      if (\n          bestToken == address(0) ||\n          (bestTokenAddr != bestToken && (_worstRate.add(minRateDifference) < _bestRate))) {\n        shouldRebalance = true;\n        return (shouldRebalance, bestTokenAddr);\n      }\n\n      return (shouldRebalance, bestTokenAddr);\n  }\n}\n",
  "sourcePath": "/home/bugman/Projects/idle/contracts/IdleHelp.sol",
  "compiler": {
    "name": "solc",
    "version": "0.5.2+commit.1df8f40c.Emscripten.clang"
  },
  "schemaVersion": "3.0.11",
  "updatedAt": "2019-07-06T08:52:16.714Z",
  "devdoc": {
    "methods": {}
  },
  "userdoc": {
    "methods": {}
  }
}