{
  "contractName": "IdleHelp",
  "abi": [
    {
      "constant": true,
      "inputs": [
        {
          "name": "cToken",
          "type": "address"
        },
        {
          "name": "iToken",
          "type": "address"
        },
        {
          "name": "bestToken",
          "type": "address"
        },
        {
          "name": "totalSupply",
          "type": "uint256"
        },
        {
          "name": "poolSupply",
          "type": "uint256"
        }
      ],
      "name": "getPriceInToken",
      "outputs": [
        {
          "name": "tokenPrice",
          "type": "uint256"
        }
      ],
      "payable": false,
      "stateMutability": "view",
      "type": "function"
    },
    {
      "constant": true,
      "inputs": [
        {
          "name": "cToken",
          "type": "address"
        },
        {
          "name": "iToken",
          "type": "address"
        },
        {
          "name": "blocksInAYear",
          "type": "uint256"
        }
      ],
      "name": "getAPRs",
      "outputs": [
        {
          "name": "cApr",
          "type": "uint256"
        },
        {
          "name": "iApr",
          "type": "uint256"
        }
      ],
      "payable": false,
      "stateMutability": "view",
      "type": "function"
    },
    {
      "constant": true,
      "inputs": [
        {
          "name": "cToken",
          "type": "address"
        },
        {
          "name": "iToken",
          "type": "address"
        },
        {
          "name": "blocksInAYear",
          "type": "uint256"
        }
      ],
      "name": "getBestRateToken",
      "outputs": [
        {
          "name": "bestRateToken",
          "type": "address"
        },
        {
          "name": "bestRate",
          "type": "uint256"
        },
        {
          "name": "worstRate",
          "type": "uint256"
        }
      ],
      "payable": false,
      "stateMutability": "view",
      "type": "function"
    },
    {
      "constant": true,
      "inputs": [
        {
          "name": "cToken",
          "type": "address"
        },
        {
          "name": "iToken",
          "type": "address"
        },
        {
          "name": "bestToken",
          "type": "address"
        },
        {
          "name": "blocksInAYear",
          "type": "uint256"
        },
        {
          "name": "minRateDifference",
          "type": "uint256"
        }
      ],
      "name": "rebalanceCheck",
      "outputs": [
        {
          "name": "shouldRebalance",
          "type": "bool"
        },
        {
          "name": "bestTokenAddr",
          "type": "address"
        }
      ],
      "payable": false,
      "stateMutability": "view",
      "type": "function"
    }
  ],
  "bytecode": "0x610971610030600b82828239805160001a6073146000811461002057610022565bfe5b5030600052607381538281f3fe7300000000000000000000000000000000000000003014608060405260043610610073576000357c01000000000000000000000000000000000000000000000000000000009004806379d883721461007857806392ffde6614610124578063a5ae97da146101e0578063fe26dc40146102c3575b600080fd5b61010e600480360360a081101561008e57600080fd5b81019080803573ffffffffffffffffffffffffffffffffffffffff169060200190929190803573ffffffffffffffffffffffffffffffffffffffff169060200190929190803573ffffffffffffffffffffffffffffffffffffffff169060200190929190803590602001909291908035906020019092919050505061034c565b6040518082815260200191505060405180910390f35b6101906004803603606081101561013a57600080fd5b81019080803573ffffffffffffffffffffffffffffffffffffffff169060200190929190803573ffffffffffffffffffffffffffffffffffffffff169060200190929190803590602001909291905050506104fe565b604051808473ffffffffffffffffffffffffffffffffffffffff1673ffffffffffffffffffffffffffffffffffffffff168152602001838152602001828152602001935050505060405180910390f35b610276600480360360a08110156101f657600080fd5b81019080803573ffffffffffffffffffffffffffffffffffffffff169060200190929190803573ffffffffffffffffffffffffffffffffffffffff169060200190929190803573ffffffffffffffffffffffffffffffffffffffff169060200190929190803590602001909291908035906020019092919050505061053b565b60405180831515151581526020018273ffffffffffffffffffffffffffffffffffffffff1673ffffffffffffffffffffffffffffffffffffffff1681526020019250505060405180910390f35b61032f600480360360608110156102d957600080fd5b81019080803573ffffffffffffffffffffffffffffffffffffffff169060200190929190803573ffffffffffffffffffffffffffffffffffffffff16906020019092919080359060200190929190505050610609565b604051808381526020018281526020019250505060405180910390f35b60008060008773ffffffffffffffffffffffffffffffffffffffff168673ffffffffffffffffffffffffffffffffffffffff161415610429578773ffffffffffffffffffffffffffffffffffffffff1663182df0f56040518163ffffffff167c010000000000000000000000000000000000000000000000000000000002815260040160206040518083038186803b1580156103e757600080fd5b505afa1580156103fb573d6000803e3d6000fd5b505050506040513d602081101561041157600080fd5b810190808051906020019092919050505090506104c9565b8673ffffffffffffffffffffffffffffffffffffffff16637ff9b5966040518163ffffffff167c010000000000000000000000000000000000000000000000000000000002815260040160206040518083038186803b15801561048b57600080fd5b505afa15801561049f573d6000803e3d6000fd5b505050506040513d60208110156104b557600080fd5b810190808051906020019092919050505090505b6104dc848261077d90919063ffffffff16565b91506104f1858361080790919063ffffffff16565b9250505095945050505050565b6000806000806000610511888888610609565b9150915087945081935080925081811115610530578192508093508694505b505093509350939050565b600080600091506000806105508989886104fe565b809350819450829550505050600073ffffffffffffffffffffffffffffffffffffffff168773ffffffffffffffffffffffffffffffffffffffff1614806105e057508673ffffffffffffffffffffffffffffffffffffffff168373ffffffffffffffffffffffffffffffffffffffff16141580156105df5750816105dd868361089a90919063ffffffff16565b105b5b156105f6576001935083839350935050506105ff565b83839350935050505b9550959350505050565b60008060008573ffffffffffffffffffffffffffffffffffffffff1663ae9d70b06040518163ffffffff167c010000000000000000000000000000000000000000000000000000000002815260040160206040518083038186803b15801561067057600080fd5b505afa158015610684573d6000803e3d6000fd5b505050506040513d602081101561069a57600080fd5b810190808051906020019092919050505090506106d360646106c5868461077d90919063ffffffff16565b61077d90919063ffffffff16565b92508473ffffffffffffffffffffffffffffffffffffffff166309ec6b6b6040518163ffffffff167c010000000000000000000000000000000000000000000000000000000002815260040160206040518083038186803b15801561073757600080fd5b505afa15801561074b573d6000803e3d6000fd5b505050506040513d602081101561076157600080fd5b8101908080519060200190929190505050915050935093915050565b6000808314156107905760009050610801565b600082840290508284828115156107a357fe5b041415156107fc576040517f08c379a00000000000000000000000000000000000000000000000000000000081526004018080602001828103825260218152602001806109256021913960400191505060405180910390fd5b809150505b92915050565b60008082111515610880576040517f08c379a000000000000000000000000000000000000000000000000000000000815260040180806020018281038252601a8152602001807f536166654d6174683a206469766973696f6e206279207a65726f00000000000081525060200191505060405180910390fd5b6000828481151561088d57fe5b0490508091505092915050565b600080828401905083811015151561091a576040517f08c379a000000000000000000000000000000000000000000000000000000000815260040180806020018281038252601b8152602001807f536166654d6174683a206164646974696f6e206f766572666c6f77000000000081525060200191505060405180910390fd5b809150509291505056fe536166654d6174683a206d756c7469706c69636174696f6e206f766572666c6f77a165627a7a72305820c294b7508acd71d06c738d49a7d9e9047f102c54fe89ebc393a7e80b2d3b8bc20029",
  "source": "pragma solidity ^0.5.2;\n\nimport \"./interfaces/CERC20.sol\";\nimport \"./interfaces/iERC20.sol\";\nimport \"openzeppelin-solidity/contracts/token/ERC20/IERC20.sol\";\nimport \"openzeppelin-solidity/contracts/math/SafeMath.sol\";\n\nlibrary IdleHelp {\n  using SafeMath for uint256;\n  function getPriceInToken(address cToken, address iToken, address bestToken, uint256 totalSupply, uint256 poolSupply)\n    public view\n    returns (uint256 tokenPrice) {\n      // 1Token = net_asset_value / total_Token_liquidity\n      // net_asset_value = (rate of 1(cToken || iToken) in underlying_Token) * balanceOf((cToken || iToken))\n      uint256 navPool;\n      uint256 price;\n\n      // rate\n      if (bestToken == cToken) {\n        // exchangeRateStored is the rate (in wei, 8 decimals) of 1cDAI in DAI * 10**18\n        price = CERC20(cToken).exchangeRateStored(); // 202487304197710837666727644 ->\n      } else {\n        price = iERC20(iToken).tokenPrice(); // eg 1001495070730287403 -> 1iToken in wei = 1001495070730287403 Token\n      }\n      navPool = price.mul(poolSupply); // eg 43388429749999990000 in DAI\n      tokenPrice = navPool.div(totalSupply); // idleToken price in token wei\n  }\n  function getAPRs(address cToken, address iToken, uint256 blocksInAYear)\n    public view\n    returns (uint256 cApr, uint256 iApr) {\n      uint256 cRate = CERC20(cToken).supplyRatePerBlock(); // interest % per block\n      cApr = cRate.mul(blocksInAYear).mul(100);\n      iApr = iERC20(iToken).supplyInterestRate(); // APR in wei 18 decimals\n  }\n  function getBestRateToken(address cToken, address iToken, uint256 blocksInAYear)\n    public view\n    returns (address bestRateToken, uint256 bestRate, uint256 worstRate) {\n      (uint256 cApr, uint256 iApr) = getAPRs(cToken, iToken, blocksInAYear);\n      bestRateToken = cToken;\n      bestRate = cApr;\n      worstRate = iApr;\n      if (iApr > cApr) {\n        worstRate = cApr;\n        bestRate = iApr;\n        bestRateToken = iToken;\n      }\n  }\n  function rebalanceCheck(address cToken, address iToken, address bestToken, uint256 blocksInAYear, uint256 minRateDifference)\n    public view\n    returns (bool shouldRebalance, address bestTokenAddr) {\n      shouldRebalance = false;\n\n      uint256 _bestRate;\n      uint256 _worstRate;\n      (bestTokenAddr, _bestRate, _worstRate) = getBestRateToken(cToken, iToken, blocksInAYear);\n      if (\n          bestToken == address(0) ||\n          (bestTokenAddr != bestToken && (_worstRate.add(minRateDifference) < _bestRate))) {\n        shouldRebalance = true;\n        return (shouldRebalance, bestTokenAddr);\n      }\n\n      return (shouldRebalance, bestTokenAddr);\n  }\n}\n",
  "sourcePath": "/home/bugman/Projects/idle/contracts/IdleHelp.sol",
  "compiler": {
    "name": "solc",
    "version": "0.5.2+commit.1df8f40c.Emscripten.clang"
  },
  "schemaVersion": "3.0.11",
  "updatedAt": "2019-08-15T10:46:34.360Z",
  "devdoc": {
    "methods": {}
  },
  "userdoc": {
    "methods": {}
  }
}