{
  "contractName": "IdleDAI",
  "abi": [
    {
      "constant": true,
      "inputs": [],
      "name": "defaultOperators",
      "outputs": [
        {
          "name": "",
          "type": "address[]"
        }
      ],
      "payable": false,
      "stateMutability": "view",
      "type": "function"
    },
    {
      "constant": true,
      "inputs": [],
      "name": "name",
      "outputs": [
        {
          "name": "",
          "type": "string"
        }
      ],
      "payable": false,
      "stateMutability": "view",
      "type": "function"
    },
    {
      "constant": false,
      "inputs": [
        {
          "name": "spender",
          "type": "address"
        },
        {
          "name": "value",
          "type": "uint256"
        }
      ],
      "name": "approve",
      "outputs": [
        {
          "name": "",
          "type": "bool"
        }
      ],
      "payable": false,
      "stateMutability": "nonpayable",
      "type": "function"
    },
    {
      "constant": true,
      "inputs": [],
      "name": "totalSupply",
      "outputs": [
        {
          "name": "",
          "type": "uint256"
        }
      ],
      "payable": false,
      "stateMutability": "view",
      "type": "function"
    },
    {
      "constant": true,
      "inputs": [],
      "name": "minRateDifference",
      "outputs": [
        {
          "name": "",
          "type": "uint256"
        }
      ],
      "payable": false,
      "stateMutability": "view",
      "type": "function"
    },
    {
      "constant": false,
      "inputs": [
        {
          "name": "holder",
          "type": "address"
        },
        {
          "name": "recipient",
          "type": "address"
        },
        {
          "name": "amount",
          "type": "uint256"
        }
      ],
      "name": "transferFrom",
      "outputs": [
        {
          "name": "",
          "type": "bool"
        }
      ],
      "payable": false,
      "stateMutability": "nonpayable",
      "type": "function"
    },
    {
      "constant": true,
      "inputs": [],
      "name": "decimals",
      "outputs": [
        {
          "name": "",
          "type": "uint8"
        }
      ],
      "payable": false,
      "stateMutability": "pure",
      "type": "function"
    },
    {
      "constant": true,
      "inputs": [],
      "name": "iToken",
      "outputs": [
        {
          "name": "",
          "type": "address"
        }
      ],
      "payable": false,
      "stateMutability": "view",
      "type": "function"
    },
    {
      "constant": true,
      "inputs": [],
      "name": "blocksInAYear",
      "outputs": [
        {
          "name": "",
          "type": "uint256"
        }
      ],
      "payable": false,
      "stateMutability": "view",
      "type": "function"
    },
    {
      "constant": true,
      "inputs": [],
      "name": "bestToken",
      "outputs": [
        {
          "name": "",
          "type": "address"
        }
      ],
      "payable": false,
      "stateMutability": "view",
      "type": "function"
    },
    {
      "constant": true,
      "inputs": [],
      "name": "granularity",
      "outputs": [
        {
          "name": "",
          "type": "uint256"
        }
      ],
      "payable": false,
      "stateMutability": "view",
      "type": "function"
    },
    {
      "constant": false,
      "inputs": [
        {
          "name": "sender",
          "type": "address"
        },
        {
          "name": "recipient",
          "type": "address"
        },
        {
          "name": "amount",
          "type": "uint256"
        },
        {
          "name": "data",
          "type": "bytes"
        },
        {
          "name": "operatorData",
          "type": "bytes"
        }
      ],
      "name": "operatorSend",
      "outputs": [],
      "payable": false,
      "stateMutability": "nonpayable",
      "type": "function"
    },
    {
      "constant": true,
      "inputs": [],
      "name": "cToken",
      "outputs": [
        {
          "name": "",
          "type": "address"
        }
      ],
      "payable": false,
      "stateMutability": "view",
      "type": "function"
    },
    {
      "constant": true,
      "inputs": [
        {
          "name": "tokenHolder",
          "type": "address"
        }
      ],
      "name": "balanceOf",
      "outputs": [
        {
          "name": "",
          "type": "uint256"
        }
      ],
      "payable": false,
      "stateMutability": "view",
      "type": "function"
    },
    {
      "constant": true,
      "inputs": [],
      "name": "owner",
      "outputs": [
        {
          "name": "",
          "type": "address"
        }
      ],
      "payable": false,
      "stateMutability": "view",
      "type": "function"
    },
    {
      "constant": false,
      "inputs": [
        {
          "name": "operator",
          "type": "address"
        }
      ],
      "name": "authorizeOperator",
      "outputs": [],
      "payable": false,
      "stateMutability": "nonpayable",
      "type": "function"
    },
    {
      "constant": true,
      "inputs": [],
      "name": "symbol",
      "outputs": [
        {
          "name": "",
          "type": "string"
        }
      ],
      "payable": false,
      "stateMutability": "view",
      "type": "function"
    },
    {
      "constant": false,
      "inputs": [
        {
          "name": "recipient",
          "type": "address"
        },
        {
          "name": "amount",
          "type": "uint256"
        },
        {
          "name": "data",
          "type": "bytes"
        }
      ],
      "name": "send",
      "outputs": [],
      "payable": false,
      "stateMutability": "nonpayable",
      "type": "function"
    },
    {
      "constant": false,
      "inputs": [
        {
          "name": "recipient",
          "type": "address"
        },
        {
          "name": "amount",
          "type": "uint256"
        }
      ],
      "name": "transfer",
      "outputs": [
        {
          "name": "",
          "type": "bool"
        }
      ],
      "payable": false,
      "stateMutability": "nonpayable",
      "type": "function"
    },
    {
      "constant": true,
      "inputs": [
        {
          "name": "operator",
          "type": "address"
        },
        {
          "name": "tokenHolder",
          "type": "address"
        }
      ],
      "name": "isOperatorFor",
      "outputs": [
        {
          "name": "",
          "type": "bool"
        }
      ],
      "payable": false,
      "stateMutability": "view",
      "type": "function"
    },
    {
      "constant": true,
      "inputs": [
        {
          "name": "holder",
          "type": "address"
        },
        {
          "name": "spender",
          "type": "address"
        }
      ],
      "name": "allowance",
      "outputs": [
        {
          "name": "",
          "type": "uint256"
        }
      ],
      "payable": false,
      "stateMutability": "view",
      "type": "function"
    },
    {
      "constant": false,
      "inputs": [
        {
          "name": "operator",
          "type": "address"
        }
      ],
      "name": "revokeOperator",
      "outputs": [],
      "payable": false,
      "stateMutability": "nonpayable",
      "type": "function"
    },
    {
      "constant": true,
      "inputs": [],
      "name": "token",
      "outputs": [
        {
          "name": "",
          "type": "address"
        }
      ],
      "payable": false,
      "stateMutability": "view",
      "type": "function"
    },
    {
      "constant": false,
      "inputs": [
        {
          "name": "account",
          "type": "address"
        },
        {
          "name": "amount",
          "type": "uint256"
        },
        {
          "name": "data",
          "type": "bytes"
        },
        {
          "name": "operatorData",
          "type": "bytes"
        }
      ],
      "name": "operatorBurn",
      "outputs": [],
      "payable": false,
      "stateMutability": "nonpayable",
      "type": "function"
    },
    {
      "constant": false,
      "inputs": [
        {
          "name": "amount",
          "type": "uint256"
        },
        {
          "name": "data",
          "type": "bytes"
        }
      ],
      "name": "burn",
      "outputs": [],
      "payable": false,
      "stateMutability": "nonpayable",
      "type": "function"
    },
    {
      "inputs": [
        {
          "name": "_cToken",
          "type": "address"
        },
        {
          "name": "_iToken",
          "type": "address"
        },
        {
          "name": "_token",
          "type": "address"
        }
      ],
      "payable": false,
      "stateMutability": "nonpayable",
      "type": "constructor"
    },
    {
      "anonymous": false,
      "inputs": [
        {
          "indexed": true,
          "name": "from",
          "type": "address"
        },
        {
          "indexed": true,
          "name": "to",
          "type": "address"
        },
        {
          "indexed": false,
          "name": "value",
          "type": "uint256"
        }
      ],
      "name": "Transfer",
      "type": "event"
    },
    {
      "anonymous": false,
      "inputs": [
        {
          "indexed": true,
          "name": "owner",
          "type": "address"
        },
        {
          "indexed": true,
          "name": "spender",
          "type": "address"
        },
        {
          "indexed": false,
          "name": "value",
          "type": "uint256"
        }
      ],
      "name": "Approval",
      "type": "event"
    },
    {
      "anonymous": false,
      "inputs": [
        {
          "indexed": true,
          "name": "operator",
          "type": "address"
        },
        {
          "indexed": true,
          "name": "from",
          "type": "address"
        },
        {
          "indexed": true,
          "name": "to",
          "type": "address"
        },
        {
          "indexed": false,
          "name": "amount",
          "type": "uint256"
        },
        {
          "indexed": false,
          "name": "data",
          "type": "bytes"
        },
        {
          "indexed": false,
          "name": "operatorData",
          "type": "bytes"
        }
      ],
      "name": "Sent",
      "type": "event"
    },
    {
      "anonymous": false,
      "inputs": [
        {
          "indexed": true,
          "name": "operator",
          "type": "address"
        },
        {
          "indexed": true,
          "name": "to",
          "type": "address"
        },
        {
          "indexed": false,
          "name": "amount",
          "type": "uint256"
        },
        {
          "indexed": false,
          "name": "data",
          "type": "bytes"
        },
        {
          "indexed": false,
          "name": "operatorData",
          "type": "bytes"
        }
      ],
      "name": "Minted",
      "type": "event"
    },
    {
      "anonymous": false,
      "inputs": [
        {
          "indexed": true,
          "name": "operator",
          "type": "address"
        },
        {
          "indexed": true,
          "name": "from",
          "type": "address"
        },
        {
          "indexed": false,
          "name": "amount",
          "type": "uint256"
        },
        {
          "indexed": false,
          "name": "data",
          "type": "bytes"
        },
        {
          "indexed": false,
          "name": "operatorData",
          "type": "bytes"
        }
      ],
      "name": "Burned",
      "type": "event"
    },
    {
      "anonymous": false,
      "inputs": [
        {
          "indexed": true,
          "name": "operator",
          "type": "address"
        },
        {
          "indexed": true,
          "name": "tokenHolder",
          "type": "address"
        }
      ],
      "name": "AuthorizedOperator",
      "type": "event"
    },
    {
      "anonymous": false,
      "inputs": [
        {
          "indexed": true,
          "name": "operator",
          "type": "address"
        },
        {
          "indexed": true,
          "name": "tokenHolder",
          "type": "address"
        }
      ],
      "name": "RevokedOperator",
      "type": "event"
    },
    {
      "constant": false,
      "inputs": [
        {
          "name": "_rate",
          "type": "uint256"
        }
      ],
      "name": "setMinRateDifference",
      "outputs": [],
      "payable": false,
      "stateMutability": "nonpayable",
      "type": "function"
    },
    {
      "constant": false,
      "inputs": [
        {
          "name": "_blocks",
          "type": "uint256"
        }
      ],
      "name": "setBlocksInAYear",
      "outputs": [],
      "payable": false,
      "stateMutability": "nonpayable",
      "type": "function"
    },
    {
      "constant": false,
      "inputs": [
        {
          "name": "_amount",
          "type": "uint256"
        }
      ],
      "name": "mintIndexToken",
      "outputs": [
        {
          "name": "mintedTokens",
          "type": "uint256"
        }
      ],
      "payable": false,
      "stateMutability": "nonpayable",
      "type": "function"
    },
    {
      "constant": false,
      "inputs": [
        {
          "name": "_amount",
          "type": "uint256"
        }
      ],
      "name": "redeemIndexToken",
      "outputs": [
        {
          "name": "tokensRedeemed",
          "type": "uint256"
        }
      ],
      "payable": false,
      "stateMutability": "nonpayable",
      "type": "function"
    },
    {
      "constant": false,
      "inputs": [],
      "name": "rebalance",
      "outputs": [],
      "payable": false,
      "stateMutability": "nonpayable",
      "type": "function"
    },
    {
      "constant": false,
      "inputs": [],
      "name": "claimITokens",
      "outputs": [
        {
          "name": "claimedTokens",
          "type": "uint256"
        }
      ],
      "payable": false,
      "stateMutability": "nonpayable",
      "type": "function"
    }
  ],
  "bytecode": "0x6080604052731820a4b7618bde71dce8cdc73aab6c95905fad246000806101000a81548173ffffffffffffffffffffffffffffffffffffffff021916908373ffffffffffffffffffffffffffffffffffffffff1602179055503480156200006557600080fd5b5060405160608062006050833981018060405260608110156200008757600080fd5b810190808051906020019092919080519060200190929190805190602001909291905050506040805190810160405280600781526020017f49646c65444149000000000000000000000000000000000000000000000000008152506040805190810160405280600781526020017f49444c45444149000000000000000000000000000000000000000000000000008152506000604051908082528060200260200182016040528015620001495781602001602082028038833980820191505090505b5082600390805190602001906200016292919062000609565b5081600490805190602001906200017b92919062000609565b5080600590805190602001906200019492919062000690565b5060008090505b6005805490508110156200024957600160066000600584815481101515620001bf57fe5b9060005260206000200160009054906101000a900473ffffffffffffffffffffffffffffffffffffffff1673ffffffffffffffffffffffffffffffffffffffff1673ffffffffffffffffffffffffffffffffffffffff16815260200190815260200160002060006101000a81548160ff02191690831515021790555080806001019150506200019b565b506000809054906101000a900473ffffffffffffffffffffffffffffffffffffffff1673ffffffffffffffffffffffffffffffffffffffff166329965a1d3060405180807f455243373737546f6b656e000000000000000000000000000000000000000000815250600b0190506040518091039020306040518463ffffffff167c0100000000000000000000000000000000000000000000000000000000028152600401808473ffffffffffffffffffffffffffffffffffffffff1673ffffffffffffffffffffffffffffffffffffffff1681526020018381526020018273ffffffffffffffffffffffffffffffffffffffff1673ffffffffffffffffffffffffffffffffffffffff1681526020019350505050600060405180830381600087803b1580156200037857600080fd5b505af11580156200038d573d6000803e3d6000fd5b505050506000809054906101000a900473ffffffffffffffffffffffffffffffffffffffff1673ffffffffffffffffffffffffffffffffffffffff166329965a1d3060405180807f4552433230546f6b656e00000000000000000000000000000000000000000000815250600a0190506040518091039020306040518463ffffffff167c0100000000000000000000000000000000000000000000000000000000028152600401808473ffffffffffffffffffffffffffffffffffffffff1673ffffffffffffffffffffffffffffffffffffffff1681526020018381526020018273ffffffffffffffffffffffffffffffffffffffff1673ffffffffffffffffffffffffffffffffffffffff1681526020019350505050600060405180830381600087803b158015620004bf57600080fd5b505af1158015620004d4573d6000803e3d6000fd5b505050505050506001600a8190555033600b60006101000a81548173ffffffffffffffffffffffffffffffffffffffff021916908373ffffffffffffffffffffffffffffffffffffffff16021790555082600c60006101000a81548173ffffffffffffffffffffffffffffffffffffffff021916908373ffffffffffffffffffffffffffffffffffffffff16021790555081600d60006101000a81548173ffffffffffffffffffffffffffffffffffffffff021916908373ffffffffffffffffffffffffffffffffffffffff16021790555080600e60006101000a81548173ffffffffffffffffffffffffffffffffffffffff021916908373ffffffffffffffffffffffffffffffffffffffff160217905550622014806010819055506706f05b59d3b200006011819055505050506200078d565b828054600181600116156101000203166002900490600052602060002090601f016020900481019282601f106200064c57805160ff19168380011785556200067d565b828001600101855582156200067d579182015b828111156200067c5782518255916020019190600101906200065f565b5b5090506200068c91906200071f565b5090565b8280548282559060005260206000209081019282156200070c579160200282015b828111156200070b5782518260006101000a81548173ffffffffffffffffffffffffffffffffffffffff021916908373ffffffffffffffffffffffffffffffffffffffff16021790555091602001919060010190620006b1565b5b5090506200071b919062000747565b5090565b6200074491905b808211156200074057600081600090555060010162000726565b5090565b90565b6200078a91905b808211156200078657600081816101000a81549073ffffffffffffffffffffffffffffffffffffffff0219169055506001016200074e565b5090565b90565b6158b3806200079d6000396000f3fe608060405234801561001057600080fd5b5060043610610202576000357c01000000000000000000000000000000000000000000000000000000009004806367f8d85d1161012c5780639bd9bbc6116100bf578063fad8b32a1161008e578063fad8b32a14610ad5578063fc0c546a14610b19578063fc673c4f14610b63578063fe9d930314610c5b57610202565b80639bd9bbc6146108d8578063a9059cbb1461097b578063d95b6371146109e1578063dd62ed3e14610a5d57610202565b80638da5cb5b116100fb5780638da5cb5b146107855780638e94319d146107cf578063959b8c3f1461081157806395d89b411461085557610202565b806367f8d85d146106ab57806369e527da146106d957806370a08231146107235780637d7c2a1c1461077b57610202565b8063313ce567116101a457806351707e461161017357806351707e461461050d578063556f0dc714610557578063621eb0931461057557806362ad1b831461059357610202565b8063313ce5671461043f578063408cfe241461046357806348ab4359146104ad5780634d02f1c2146104ef57610202565b806318160ddd116101e057806318160ddd1461034f5780631aaa4a181461036d57806322c9f9711461039b57806323b872dd146103b957610202565b806306e485381461020757806306fdde0314610266578063095ea7b3146102e9575b600080fd5b61020f610cde565b6040518080602001828103825283818151815260200191508051906020019060200280838360005b83811015610252578082015181840152602081019050610237565b505050509050019250505060405180910390f35b61026e610d6c565b6040518080602001828103825283818151815260200191508051906020019080838360005b838110156102ae578082015181840152602081019050610293565b50505050905090810190601f1680156102db5780820380516001836020036101000a031916815260200191505b509250505060405180910390f35b610335600480360360408110156102ff57600080fd5b81019080803573ffffffffffffffffffffffffffffffffffffffff16906020019092919080359060200190929190505050610e0e565b604051808215151515815260200191505060405180910390f35b610357610e2a565b6040518082815260200191505060405180910390f35b6103996004803603602081101561038357600080fd5b8101908080359060200190929190505050610e34565b005b6103a3610f03565b6040518082815260200191505060405180910390f35b610425600480360360608110156103cf57600080fd5b81019080803573ffffffffffffffffffffffffffffffffffffffff169060200190929190803573ffffffffffffffffffffffffffffffffffffffff16906020019092919080359060200190929190505050610f09565b604051808215151515815260200191505060405180910390f35b610447611150565b604051808260ff1660ff16815260200191505060405180910390f35b61046b611159565b604051808273ffffffffffffffffffffffffffffffffffffffff1673ffffffffffffffffffffffffffffffffffffffff16815260200191505060405180910390f35b6104d9600480360360208110156104c357600080fd5b810190808035906020019092919050505061117f565b6040518082815260200191505060405180910390f35b6104f76116ad565b6040518082815260200191505060405180910390f35b6105156116b3565b604051808273ffffffffffffffffffffffffffffffffffffffff1673ffffffffffffffffffffffffffffffffffffffff16815260200191505060405180910390f35b61055f6116d9565b6040518082815260200191505060405180910390f35b61057d6116e2565b6040518082815260200191505060405180910390f35b6106a9600480360360a08110156105a957600080fd5b81019080803573ffffffffffffffffffffffffffffffffffffffff169060200190929190803573ffffffffffffffffffffffffffffffffffffffff169060200190929190803590602001909291908035906020019064010000000081111561061057600080fd5b82018360208201111561062257600080fd5b8035906020019184600183028401116401000000008311171561064457600080fd5b90919293919293908035906020019064010000000081111561066557600080fd5b82018360208201111561067757600080fd5b8035906020019184600183028401116401000000008311171561069957600080fd5b9091929391929390505050611859565b005b6106d7600480360360208110156106c157600080fd5b810190808035906020019092919050505061195b565b005b6106e1611a2a565b604051808273ffffffffffffffffffffffffffffffffffffffff1673ffffffffffffffffffffffffffffffffffffffff16815260200191505060405180910390f35b6107656004803603602081101561073957600080fd5b81019080803573ffffffffffffffffffffffffffffffffffffffff169060200190929190505050611a50565b6040518082815260200191505060405180910390f35b610783611a99565b005b61078d612186565b604051808273ffffffffffffffffffffffffffffffffffffffff1673ffffffffffffffffffffffffffffffffffffffff16815260200191505060405180910390f35b6107fb600480360360208110156107e557600080fd5b81019080803590602001909291905050506121ac565b6040518082815260200191505060405180910390f35b6108536004803603602081101561082757600080fd5b81019080803573ffffffffffffffffffffffffffffffffffffffff169060200190929190505050612688565b005b61085d6128e5565b6040518080602001828103825283818151815260200191508051906020019080838360005b8381101561089d578082015181840152602081019050610882565b50505050905090810190601f1680156108ca5780820380516001836020036101000a031916815260200191505b509250505060405180910390f35b610979600480360360608110156108ee57600080fd5b81019080803573ffffffffffffffffffffffffffffffffffffffff169060200190929190803590602001909291908035906020019064010000000081111561093557600080fd5b82018360208201111561094757600080fd5b8035906020019184600183028401116401000000008311171561096957600080fd5b9091929391929390505050612987565b005b6109c76004803603604081101561099157600080fd5b81019080803573ffffffffffffffffffffffffffffffffffffffff169060200190929190803590602001909291905050506129f1565b604051808215151515815260200191505060405180910390f35b610a43600480360360408110156109f757600080fd5b81019080803573ffffffffffffffffffffffffffffffffffffffff169060200190929190803573ffffffffffffffffffffffffffffffffffffffff169060200190929190505050612b16565b604051808215151515815260200191505060405180910390f35b610abf60048036036040811015610a7357600080fd5b81019080803573ffffffffffffffffffffffffffffffffffffffff169060200190929190803573ffffffffffffffffffffffffffffffffffffffff169060200190929190505050612cc7565b6040518082815260200191505060405180910390f35b610b1760048036036020811015610aeb57600080fd5b81019080803573ffffffffffffffffffffffffffffffffffffffff169060200190929190505050612d4e565b005b610b21612fab565b604051808273ffffffffffffffffffffffffffffffffffffffff1673ffffffffffffffffffffffffffffffffffffffff16815260200191505060405180910390f35b610c5960048036036080811015610b7957600080fd5b81019080803573ffffffffffffffffffffffffffffffffffffffff1690602001909291908035906020019092919080359060200190640100000000811115610bc057600080fd5b820183602082011115610bd257600080fd5b80359060200191846001830284011164010000000083111715610bf457600080fd5b909192939192939080359060200190640100000000811115610c1557600080fd5b820183602082011115610c2757600080fd5b80359060200191846001830284011164010000000083111715610c4957600080fd5b9091929391929390505050612fd1565b005b610cdc60048036036040811015610c7157600080fd5b810190808035906020019092919080359060200190640100000000811115610c9857600080fd5b820183602082011115610caa57600080fd5b80359060200191846001830284011164010000000083111715610ccc57600080fd5b90919293919293905050506130cf565b005b60606005805480602002602001604051908101604052809291908181526020018280548015610d6257602002820191906000526020600020905b8160009054906101000a900473ffffffffffffffffffffffffffffffffffffffff1673ffffffffffffffffffffffffffffffffffffffff1681526020019060010190808311610d18575b5050505050905090565b606060038054600181600116156101000203166002900480601f016020809104026020016040519081016040528092919081815260200182805460018160011615610100020316600290048015610e045780601f10610dd957610100808354040283529160200191610e04565b820191906000526020600020905b815481529060010190602001808311610de757829003601f168201915b5050505050905090565b600080339050610e1f818585613135565b600191505092915050565b6000600254905090565b600b60009054906101000a900473ffffffffffffffffffffffffffffffffffffffff1673ffffffffffffffffffffffffffffffffffffffff163373ffffffffffffffffffffffffffffffffffffffff16141515610ef9576040517f08c379a000000000000000000000000000000000000000000000000000000000815260040180806020018281038252600a8152602001807f4f6e6c79206f776e65720000000000000000000000000000000000000000000081525060200191505060405180910390fd5b8060118190555050565b60115481565b60008073ffffffffffffffffffffffffffffffffffffffff168373ffffffffffffffffffffffffffffffffffffffff1614151515610f92576040517f08c379a00000000000000000000000000000000000000000000000000000000081526004018080602001828103825260248152602001806157976024913960400191505060405180910390fd5b600073ffffffffffffffffffffffffffffffffffffffff168473ffffffffffffffffffffffffffffffffffffffff161415151561101a576040517f08c379a00000000000000000000000000000000000000000000000000000000081526004018080602001828103825260268152602001806158116026913960400191505060405180910390fd5b600033905061104d81868686602060405190810160405280600081525060206040519081016040528060008152506132a8565b61107b8186868660206040519081016040528060008152506020604051908101604052806000815250613609565b611114858261110f86600960008b73ffffffffffffffffffffffffffffffffffffffff1673ffffffffffffffffffffffffffffffffffffffff16815260200190815260200160002060008773ffffffffffffffffffffffffffffffffffffffff1673ffffffffffffffffffffffffffffffffffffffff168152602001908152602001600020546138f690919063ffffffff16565b613135565b61114481868686602060405190810160405280600081525060206040519081016040528060008152506000613981565b60019150509392505050565b60006012905090565b600d60009054906101000a900473ffffffffffffffffffffffffffffffffffffffff1681565b60006001600a600082825401925050819055506000600a54905060003073ffffffffffffffffffffffffffffffffffffffff166318160ddd6040518163ffffffff167c010000000000000000000000000000000000000000000000000000000002815260040160206040518083038186803b1580156111fd57600080fd5b505afa158015611211573d6000803e3d6000fd5b505050506040513d602081101561122757600080fd5b810190808051906020019092919050505090506000811115156112b2576040517f08c379a000000000000000000000000000000000000000000000000000000000815260040180806020018281038252601b8152602001807f4e6f2049444c454441492068617665206265656e20697373756564000000000081525060200191505060405180910390fd5b600c60009054906101000a900473ffffffffffffffffffffffffffffffffffffffff1673ffffffffffffffffffffffffffffffffffffffff16600f60009054906101000a900473ffffffffffffffffffffffffffffffffffffffff1673ffffffffffffffffffffffffffffffffffffffff161415611460576000600c60009054906101000a900473ffffffffffffffffffffffffffffffffffffffff1673ffffffffffffffffffffffffffffffffffffffff166370a08231306040518263ffffffff167c0100000000000000000000000000000000000000000000000000000000028152600401808273ffffffffffffffffffffffffffffffffffffffff1673ffffffffffffffffffffffffffffffffffffffff16815260200191505060206040518083038186803b1580156113e757600080fd5b505afa1580156113fb573d6000803e3d6000fd5b505050506040513d602081101561141157600080fd5b81019080805190602001909291905050509050600061144b8361143d8489613d6590919063ffffffff16565b613def90919063ffffffff16565b90506114578133613e82565b94505050611592565b6000600d60009054906101000a900473ffffffffffffffffffffffffffffffffffffffff1673ffffffffffffffffffffffffffffffffffffffff166370a08231306040518263ffffffff167c0100000000000000000000000000000000000000000000000000000000028152600401808273ffffffffffffffffffffffffffffffffffffffff1673ffffffffffffffffffffffffffffffffffffffff16815260200191505060206040518083038186803b15801561151d57600080fd5b505afa158015611531573d6000803e3d6000fd5b505050506040513d602081101561154757600080fd5b810190808051906020019092919050505090506000611581836115738489613d6590919063ffffffff16565b613def90919063ffffffff16565b905061158d8133614109565b945050505b3073ffffffffffffffffffffffffffffffffffffffff1663fe9d9303856040518263ffffffff167c0100000000000000000000000000000000000000000000000000000000028152600401808281526020018060200182810382526000815260200160200192505050600060405180830381600087803b15801561161557600080fd5b505af1158015611629573d6000803e3d6000fd5b5050505050600a54811415156116a7576040517f08c379a000000000000000000000000000000000000000000000000000000000815260040180806020018281038252601f8152602001807f5265656e7472616e637947756172643a207265656e7472616e742063616c6c0081525060200191505060405180910390fd5b50919050565b60105481565b600f60009054906101000a900473ffffffffffffffffffffffffffffffffffffffff1681565b60006001905090565b6000600d60009054906101000a900473ffffffffffffffffffffffffffffffffffffffff1673ffffffffffffffffffffffffffffffffffffffff1663087fc48b6040518163ffffffff167c0100000000000000000000000000000000000000000000000000000000028152600401602060405180830381600087803b15801561176a57600080fd5b505af115801561177e573d6000803e3d6000fd5b505050506040513d602081101561179457600080fd5b8101908080519060200190929190505050905060008114156117b857809050611856565b6117c0611a99565b600c60009054906101000a900473ffffffffffffffffffffffffffffffffffffffff1673ffffffffffffffffffffffffffffffffffffffff16600f60009054906101000a900473ffffffffffffffffffffffffffffffffffffffff1673ffffffffffffffffffffffffffffffffffffffff1614156118475761184181614213565b50611852565b611850816145a9565b505b8090505b90565b6118633388612b16565b15156118ba576040517f08c379a000000000000000000000000000000000000000000000000000000000815260040180806020018281038252602c8152602001806157bb602c913960400191505060405180910390fd5b6119523388888888888080601f016020809104026020016040519081016040528093929190818152602001838380828437600081840152601f19601f8201169050808301925050505050505087878080601f016020809104026020016040519081016040528093929190818152602001838380828437600081840152601f19601f82011690508083019250505050505050600161482e565b50505050505050565b600b60009054906101000a900473ffffffffffffffffffffffffffffffffffffffff1673ffffffffffffffffffffffffffffffffffffffff163373ffffffffffffffffffffffffffffffffffffffff16141515611a20576040517f08c379a000000000000000000000000000000000000000000000000000000000815260040180806020018281038252600a8152602001807f4f6e6c79206f776e65720000000000000000000000000000000000000000000081525060200191505060405180910390fd5b8060108190555050565b600c60009054906101000a900473ffffffffffffffffffffffffffffffffffffffff1681565b6000600160008373ffffffffffffffffffffffffffffffffffffffff1673ffffffffffffffffffffffffffffffffffffffff168152602001908152602001600020549050919050565b60008073__IdleHelp______________________________63a5ae97da600c60009054906101000a900473ffffffffffffffffffffffffffffffffffffffff16600d60009054906101000a900473ffffffffffffffffffffffffffffffffffffffff16600f60009054906101000a900473ffffffffffffffffffffffffffffffffffffffff166010546011546040518663ffffffff167c0100000000000000000000000000000000000000000000000000000000028152600401808673ffffffffffffffffffffffffffffffffffffffff1673ffffffffffffffffffffffffffffffffffffffff1681526020018573ffffffffffffffffffffffffffffffffffffffff1673ffffffffffffffffffffffffffffffffffffffff1681526020018473ffffffffffffffffffffffffffffffffffffffff1673ffffffffffffffffffffffffffffffffffffffff16815260200183815260200182815260200195505050505050604080518083038186803b158015611c1457600080fd5b505af4158015611c28573d6000803e3d6000fd5b505050506040513d6040811015611c3e57600080fd5b81019080805190602001909291908051906020019092919050505091509150811515611c6b575050612184565b600073ffffffffffffffffffffffffffffffffffffffff16600f60009054906101000a900473ffffffffffffffffffffffffffffffffffffffff1673ffffffffffffffffffffffffffffffffffffffff1614151561214057600c60009054906101000a900473ffffffffffffffffffffffffffffffffffffffff1673ffffffffffffffffffffffffffffffffffffffff16600f60009054906101000a900473ffffffffffffffffffffffffffffffffffffffff1673ffffffffffffffffffffffffffffffffffffffff161415611f3f57611e3a600c60009054906101000a900473ffffffffffffffffffffffffffffffffffffffff1673ffffffffffffffffffffffffffffffffffffffff166370a08231306040518263ffffffff167c0100000000000000000000000000000000000000000000000000000000028152600401808273ffffffffffffffffffffffffffffffffffffffff1673ffffffffffffffffffffffffffffffffffffffff16815260200191505060206040518083038186803b158015611df957600080fd5b505afa158015611e0d573d6000803e3d6000fd5b505050506040513d6020811015611e2357600080fd5b810190808051906020019092919050505030613e82565b50611f39600e60009054906101000a900473ffffffffffffffffffffffffffffffffffffffff1673ffffffffffffffffffffffffffffffffffffffff166370a08231306040518263ffffffff167c0100000000000000000000000000000000000000000000000000000000028152600401808273ffffffffffffffffffffffffffffffffffffffff1673ffffffffffffffffffffffffffffffffffffffff16815260200191505060206040518083038186803b158015611ef957600080fd5b505afa158015611f0d573d6000803e3d6000fd5b505050506040513d6020811015611f2357600080fd5b81019080805190602001909291905050506145a9565b5061213f565b61203e600d60009054906101000a900473ffffffffffffffffffffffffffffffffffffffff1673ffffffffffffffffffffffffffffffffffffffff166370a08231306040518263ffffffff167c0100000000000000000000000000000000000000000000000000000000028152600401808273ffffffffffffffffffffffffffffffffffffffff1673ffffffffffffffffffffffffffffffffffffffff16815260200191505060206040518083038186803b158015611ffd57600080fd5b505afa158015612011573d6000803e3d6000fd5b505050506040513d602081101561202757600080fd5b810190808051906020019092919050505030614109565b5061213d600e60009054906101000a900473ffffffffffffffffffffffffffffffffffffffff1673ffffffffffffffffffffffffffffffffffffffff166370a08231306040518263ffffffff167c0100000000000000000000000000000000000000000000000000000000028152600401808273ffffffffffffffffffffffffffffffffffffffff1673ffffffffffffffffffffffffffffffffffffffff16815260200191505060206040518083038186803b1580156120fd57600080fd5b505afa158015612111573d6000803e3d6000fd5b505050506040513d602081101561212757600080fd5b8101908080519060200190929190505050614213565b505b5b80600f60006101000a81548173ffffffffffffffffffffffffffffffffffffffff021916908373ffffffffffffffffffffffffffffffffffffffff16021790555050505b565b600b60009054906101000a900473ffffffffffffffffffffffffffffffffffffffff1681565b60006001600a600082825401925050819055506000600a5490506000600e60009054906101000a900473ffffffffffffffffffffffffffffffffffffffff16905061221a3330868473ffffffffffffffffffffffffffffffffffffffff1661498f909392919063ffffffff16565b612222611a99565b6000600c60009054906101000a900473ffffffffffffffffffffffffffffffffffffffff1673ffffffffffffffffffffffffffffffffffffffff16600f60009054906101000a900473ffffffffffffffffffffffffffffffffffffffff1673ffffffffffffffffffffffffffffffffffffffff1614156122ac576122a585614213565b90506122b8565b6122b5856145a9565b90505b600073ffffffffffffffffffffffffffffffffffffffff16600f60009054906101000a900473ffffffffffffffffffffffffffffffffffffffff1673ffffffffffffffffffffffffffffffffffffffff1614156123445761233c33338760206040519081016040528060008152506020604051908101604052806000815250614ab1565b849350612607565b600073__IdleHelp______________________________63c8eceb51600c60009054906101000a900473ffffffffffffffffffffffffffffffffffffffff16600d60009054906101000a900473ffffffffffffffffffffffffffffffffffffffff16600f60009054906101000a900473ffffffffffffffffffffffffffffffffffffffff163073ffffffffffffffffffffffffffffffffffffffff166370a08231306040518263ffffffff167c0100000000000000000000000000000000000000000000000000000000028152600401808273ffffffffffffffffffffffffffffffffffffffff1673ffffffffffffffffffffffffffffffffffffffff16815260200191505060206040518083038186803b15801561246257600080fd5b505afa158015612476573d6000803e3d6000fd5b505050506040513d602081101561248c57600080fd5b81019080805190602001909291905050506040518563ffffffff167c0100000000000000000000000000000000000000000000000000000000028152600401808573ffffffffffffffffffffffffffffffffffffffff1673ffffffffffffffffffffffffffffffffffffffff1681526020018473ffffffffffffffffffffffffffffffffffffffff1673ffffffffffffffffffffffffffffffffffffffff1681526020018373ffffffffffffffffffffffffffffffffffffffff1673ffffffffffffffffffffffffffffffffffffffff16815260200182815260200194505050505060206040518083038186803b15801561258657600080fd5b505af415801561259a573d6000803e3d6000fd5b505050506040513d60208110156125b057600080fd5b810190808051906020019092919050505090506125d68187613def90919063ffffffff16565b945061260533338760206040519081016040528060008152506020604051908101604052806000815250614ab1565b505b5050600a5481141515612682576040517f08c379a000000000000000000000000000000000000000000000000000000000815260040180806020018281038252601f8152602001807f5265656e7472616e637947756172643a207265656e7472616e742063616c6c0081525060200191505060405180910390fd5b50919050565b8073ffffffffffffffffffffffffffffffffffffffff163373ffffffffffffffffffffffffffffffffffffffff161415151561270f576040517f08c379a00000000000000000000000000000000000000000000000000000000081526004018080602001828103825260248152602001806156e46024913960400191505060405180910390fd5b600660008273ffffffffffffffffffffffffffffffffffffffff1673ffffffffffffffffffffffffffffffffffffffff16815260200190815260200160002060009054906101000a900460ff16156127f257600860003373ffffffffffffffffffffffffffffffffffffffff1673ffffffffffffffffffffffffffffffffffffffff16815260200190815260200160002060008273ffffffffffffffffffffffffffffffffffffffff1673ffffffffffffffffffffffffffffffffffffffff16815260200190815260200160002060006101000a81549060ff0219169055612888565b6001600760003373ffffffffffffffffffffffffffffffffffffffff1673ffffffffffffffffffffffffffffffffffffffff16815260200190815260200160002060008373ffffffffffffffffffffffffffffffffffffffff1673ffffffffffffffffffffffffffffffffffffffff16815260200190815260200160002060006101000a81548160ff0219169083151502179055505b3373ffffffffffffffffffffffffffffffffffffffff168173ffffffffffffffffffffffffffffffffffffffff167ff4caeb2d6ca8932a215a353d0703c326ec2d81fc68170f320eb2ab49e9df61f960405160405180910390a350565b606060048054600181600116156101000203166002900480601f01602080910402602001604051908101604052809291908181526020018280546001816001161561010002031660029004801561297d5780601f106129525761010080835404028352916020019161297d565b820191906000526020600020905b81548152906001019060200180831161296057829003601f168201915b5050505050905090565b6129eb3333868686868080601f016020809104026020016040519081016040528093929190818152602001838380828437600081840152601f19601f820116905080830192505050505050506020604051908101604052806000815250600161482e565b50505050565b60008073ffffffffffffffffffffffffffffffffffffffff168373ffffffffffffffffffffffffffffffffffffffff1614151515612a7a576040517f08c379a00000000000000000000000000000000000000000000000000000000081526004018080602001828103825260248152602001806157976024913960400191505060405180910390fd5b6000339050612aad81828686602060405190810160405280600081525060206040519081016040528060008152506132a8565b612adb8182868660206040519081016040528060008152506020604051908101604052806000815250613609565b612b0b81828686602060405190810160405280600081525060206040519081016040528060008152506000613981565b600191505092915050565b60008173ffffffffffffffffffffffffffffffffffffffff168373ffffffffffffffffffffffffffffffffffffffff161480612c2e5750600660008473ffffffffffffffffffffffffffffffffffffffff1673ffffffffffffffffffffffffffffffffffffffff16815260200190815260200160002060009054906101000a900460ff168015612c2d5750600860008373ffffffffffffffffffffffffffffffffffffffff1673ffffffffffffffffffffffffffffffffffffffff16815260200190815260200160002060008473ffffffffffffffffffffffffffffffffffffffff1673ffffffffffffffffffffffffffffffffffffffff16815260200190815260200160002060009054906101000a900460ff16155b5b80612cbf5750600760008373ffffffffffffffffffffffffffffffffffffffff1673ffffffffffffffffffffffffffffffffffffffff16815260200190815260200160002060008473ffffffffffffffffffffffffffffffffffffffff1673ffffffffffffffffffffffffffffffffffffffff16815260200190815260200160002060009054906101000a900460ff165b905092915050565b6000600960008473ffffffffffffffffffffffffffffffffffffffff1673ffffffffffffffffffffffffffffffffffffffff16815260200190815260200160002060008373ffffffffffffffffffffffffffffffffffffffff1673ffffffffffffffffffffffffffffffffffffffff16815260200190815260200160002054905092915050565b3373ffffffffffffffffffffffffffffffffffffffff168173ffffffffffffffffffffffffffffffffffffffff1614151515612dd5576040517f08c379a00000000000000000000000000000000000000000000000000000000081526004018080602001828103825260218152602001806157086021913960400191505060405180910390fd5b600660008273ffffffffffffffffffffffffffffffffffffffff1673ffffffffffffffffffffffffffffffffffffffff16815260200190815260200160002060009054906101000a900460ff1615612ec1576001600860003373ffffffffffffffffffffffffffffffffffffffff1673ffffffffffffffffffffffffffffffffffffffff16815260200190815260200160002060008373ffffffffffffffffffffffffffffffffffffffff1673ffffffffffffffffffffffffffffffffffffffff16815260200190815260200160002060006101000a81548160ff021916908315150217905550612f4e565b600760003373ffffffffffffffffffffffffffffffffffffffff1673ffffffffffffffffffffffffffffffffffffffff16815260200190815260200160002060008273ffffffffffffffffffffffffffffffffffffffff1673ffffffffffffffffffffffffffffffffffffffff16815260200190815260200160002060006101000a81549060ff02191690555b3373ffffffffffffffffffffffffffffffffffffffff168173ffffffffffffffffffffffffffffffffffffffff167f50546e66e5f44d728365dc3908c63bc5cfeeab470722c1677e3073a6ac294aa160405160405180910390a350565b600e60009054906101000a900473ffffffffffffffffffffffffffffffffffffffff1681565b612fdb3387612b16565b1515613032576040517f08c379a000000000000000000000000000000000000000000000000000000000815260040180806020018281038252602c8152602001806157bb602c913960400191505060405180910390fd5b6130c733878787878080601f016020809104026020016040519081016040528093929190818152602001838380828437600081840152601f19601f8201169050808301925050505050505086868080601f016020809104026020016040519081016040528093929190818152602001838380828437600081840152601f19601f82011690508083019250505050505050614dc3565b505050505050565b61313033338585858080601f016020809104026020016040519081016040528093929190818152602001838380828437600081840152601f19601f820116905080830192505050505050506020604051908101604052806000815250614dc3565b505050565b600073ffffffffffffffffffffffffffffffffffffffff168273ffffffffffffffffffffffffffffffffffffffff16141515156131bd576040517f08c379a00000000000000000000000000000000000000000000000000000000081526004018080602001828103825260238152602001806158656023913960400191505060405180910390fd5b80600960008573ffffffffffffffffffffffffffffffffffffffff1673ffffffffffffffffffffffffffffffffffffffff16815260200190815260200160002060008473ffffffffffffffffffffffffffffffffffffffff1673ffffffffffffffffffffffffffffffffffffffff168152602001908152602001600020819055508173ffffffffffffffffffffffffffffffffffffffff168373ffffffffffffffffffffffffffffffffffffffff167f8c5be1e5ebec7d5bd14f71427d1e84f3dd0314c0f7b2291e5b200ac8c7c3b925836040518082815260200191505060405180910390a3505050565b60008060009054906101000a900473ffffffffffffffffffffffffffffffffffffffff1673ffffffffffffffffffffffffffffffffffffffff1663aabbb8ca877f29ddb589b1fb5fc7cf394961c1adf5f8c6454761adf795e67fe149f658abe8956001026040518363ffffffff167c0100000000000000000000000000000000000000000000000000000000028152600401808373ffffffffffffffffffffffffffffffffffffffff1673ffffffffffffffffffffffffffffffffffffffff1681526020018281526020019250505060206040518083038186803b15801561338f57600080fd5b505afa1580156133a3573d6000803e3d6000fd5b505050506040513d60208110156133b957600080fd5b81019080805190602001909291905050509050600073ffffffffffffffffffffffffffffffffffffffff168173ffffffffffffffffffffffffffffffffffffffff16141515613600578073ffffffffffffffffffffffffffffffffffffffff166375ab97828888888888886040518763ffffffff167c0100000000000000000000000000000000000000000000000000000000028152600401808773ffffffffffffffffffffffffffffffffffffffff1673ffffffffffffffffffffffffffffffffffffffff1681526020018673ffffffffffffffffffffffffffffffffffffffff1673ffffffffffffffffffffffffffffffffffffffff1681526020018573ffffffffffffffffffffffffffffffffffffffff1673ffffffffffffffffffffffffffffffffffffffff1681526020018481526020018060200180602001838103835285818151815260200191508051906020019080838360005b8381101561352f578082015181840152602081019050613514565b50505050905090810190601f16801561355c5780820380516001836020036101000a031916815260200191505b50838103825284818151815260200191508051906020019080838360005b8381101561359557808201518184015260208101905061357a565b50505050905090810190601f1680156135c25780820380516001836020036101000a031916815260200191505b5098505050505050505050600060405180830381600087803b1580156135e757600080fd5b505af11580156135fb573d6000803e3d6000fd5b505050505b50505050505050565b61365b83600160008873ffffffffffffffffffffffffffffffffffffffff1673ffffffffffffffffffffffffffffffffffffffff168152602001908152602001600020546138f690919063ffffffff16565b600160008773ffffffffffffffffffffffffffffffffffffffff1673ffffffffffffffffffffffffffffffffffffffff168152602001908152602001600020819055506136f083600160008773ffffffffffffffffffffffffffffffffffffffff1673ffffffffffffffffffffffffffffffffffffffff168152602001908152602001600020546150b690919063ffffffff16565b600160008673ffffffffffffffffffffffffffffffffffffffff1673ffffffffffffffffffffffffffffffffffffffff168152602001908152602001600020819055508373ffffffffffffffffffffffffffffffffffffffff168573ffffffffffffffffffffffffffffffffffffffff168773ffffffffffffffffffffffffffffffffffffffff167f06b541ddaa720db2b10a4d0cdac39b8d360425fc073085fac19bc82614677987868686604051808481526020018060200180602001838103835285818151815260200191508051906020019080838360005b838110156137e65780820151818401526020810190506137cb565b50505050905090810190601f1680156138135780820380516001836020036101000a031916815260200191505b50838103825284818151815260200191508051906020019080838360005b8381101561384c578082015181840152602081019050613831565b50505050905090810190601f1680156138795780820380516001836020036101000a031916815260200191505b509550505050505060405180910390a48373ffffffffffffffffffffffffffffffffffffffff168573ffffffffffffffffffffffffffffffffffffffff167fddf252ad1be2c89b69c2b068fc378daa952ba7f163c4a11628f55a4df523b3ef856040518082815260200191505060405180910390a3505050505050565b6000828211151515613970576040517f08c379a000000000000000000000000000000000000000000000000000000000815260040180806020018281038252601e8152602001807f536166654d6174683a207375627472616374696f6e206f766572666c6f77000081525060200191505060405180910390fd5b600082840390508091505092915050565b60008060009054906101000a900473ffffffffffffffffffffffffffffffffffffffff1673ffffffffffffffffffffffffffffffffffffffff1663aabbb8ca877fb281fc8c12954d22544db45de3159a39272895b169a852b314f9cc762e44c53b6001026040518363ffffffff167c0100000000000000000000000000000000000000000000000000000000028152600401808373ffffffffffffffffffffffffffffffffffffffff1673ffffffffffffffffffffffffffffffffffffffff1681526020018281526020019250505060206040518083038186803b158015613a6857600080fd5b505afa158015613a7c573d6000803e3d6000fd5b505050506040513d6020811015613a9257600080fd5b81019080805190602001909291905050509050600073ffffffffffffffffffffffffffffffffffffffff168173ffffffffffffffffffffffffffffffffffffffff16141515613cdc578073ffffffffffffffffffffffffffffffffffffffff166223de298989898989896040518763ffffffff167c0100000000000000000000000000000000000000000000000000000000028152600401808773ffffffffffffffffffffffffffffffffffffffff1673ffffffffffffffffffffffffffffffffffffffff1681526020018673ffffffffffffffffffffffffffffffffffffffff1673ffffffffffffffffffffffffffffffffffffffff1681526020018573ffffffffffffffffffffffffffffffffffffffff1673ffffffffffffffffffffffffffffffffffffffff1681526020018481526020018060200180602001838103835285818151815260200191508051906020019080838360005b83811015613c07578082015181840152602081019050613bec565b50505050905090810190601f168015613c345780820380516001836020036101000a031916815260200191505b50838103825284818151815260200191508051906020019080838360005b83811015613c6d578082015181840152602081019050613c52565b50505050905090810190601f168015613c9a5780820380516001836020036101000a031916815260200191505b5098505050505050505050600060405180830381600087803b158015613cbf57600080fd5b505af1158015613cd3573d6000803e3d6000fd5b50505050613d5b565b8115613d5a57613d018673ffffffffffffffffffffffffffffffffffffffff16615140565b151515613d59576040517f08c379a000000000000000000000000000000000000000000000000000000000815260040180806020018281038252604d81526020018061574a604d913960600191505060405180910390fd5b5b5b5050505050505050565b600080831415613d785760009050613de9565b60008284029050828482811515613d8b57fe5b04141515613de4576040517f08c379a00000000000000000000000000000000000000000000000000000000081526004018080602001828103825260218152602001806157296021913960400191505060405180910390fd5b809150505b92915050565b60008082111515613e68576040517f08c379a000000000000000000000000000000000000000000000000000000000815260040180806020018281038252601a8152602001807f536166654d6174683a206469766973696f6e206279207a65726f00000000000081525060200191505060405180910390fd5b60008284811515613e7557fe5b0490508091505092915050565b600080600c60009054906101000a900473ffffffffffffffffffffffffffffffffffffffff16905060008173ffffffffffffffffffffffffffffffffffffffff1663db006a75866040518263ffffffff167c010000000000000000000000000000000000000000000000000000000002815260040180828152602001915050602060405180830381600087803b158015613f1b57600080fd5b505af1158015613f2f573d6000803e3d6000fd5b505050506040513d6020811015613f4557600080fd5b8101908080519060200190929190505050141515613fae576040517f08c379a000000000000000000000000000000000000000000000000000000000815260040180806020018281038252602e815260200180615837602e913960400191505060405180910390fd5b60008173ffffffffffffffffffffffffffffffffffffffff1663182df0f56040518163ffffffff167c010000000000000000000000000000000000000000000000000000000002815260040160206040518083038186803b15801561401257600080fd5b505afa158015614026573d6000803e3d6000fd5b505050506040513d602081101561403c57600080fd5b8101908080519060200190929190505050905061407c670de0b6b3a764000061406e8388613d6590919063ffffffff16565b613def90919063ffffffff16565b92503073ffffffffffffffffffffffffffffffffffffffff168473ffffffffffffffffffffffffffffffffffffffff16141515614101576141008484600e60009054906101000a900473ffffffffffffffffffffffffffffffffffffffff1673ffffffffffffffffffffffffffffffffffffffff166151539092919063ffffffff16565b5b505092915050565b6000600d60009054906101000a900473ffffffffffffffffffffffffffffffffffffffff1673ffffffffffffffffffffffffffffffffffffffff16639dc29fac83856040518363ffffffff167c0100000000000000000000000000000000000000000000000000000000028152600401808373ffffffffffffffffffffffffffffffffffffffff1673ffffffffffffffffffffffffffffffffffffffff16815260200182815260200192505050602060405180830381600087803b1580156141d057600080fd5b505af11580156141e4573d6000803e3d6000fd5b505050506040513d60208110156141fa57600080fd5b8101908080519060200190929190505050905092915050565b600080600c60009054906101000a900473ffffffffffffffffffffffffffffffffffffffff1673ffffffffffffffffffffffffffffffffffffffff166370a08231306040518263ffffffff167c0100000000000000000000000000000000000000000000000000000000028152600401808273ffffffffffffffffffffffffffffffffffffffff1673ffffffffffffffffffffffffffffffffffffffff16815260200191505060206040518083038186803b1580156142d157600080fd5b505afa1580156142e5573d6000803e3d6000fd5b505050506040513d60208110156142fb57600080fd5b8101908080519060200190929190505050141561431a578090506145a4565b614389600c60009054906101000a900473ffffffffffffffffffffffffffffffffffffffff1683600e60009054906101000a900473ffffffffffffffffffffffffffffffffffffffff1673ffffffffffffffffffffffffffffffffffffffff166152409092919063ffffffff16565b6000600c60009054906101000a900473ffffffffffffffffffffffffffffffffffffffff16905060008173ffffffffffffffffffffffffffffffffffffffff1663a0712d68856040518263ffffffff167c010000000000000000000000000000000000000000000000000000000002815260040180828152602001915050602060405180830381600087803b15801561442157600080fd5b505af1158015614435573d6000803e3d6000fd5b505050506040513d602081101561444b57600080fd5b81019080805190602001909291905050501415156144d1576040517f08c379a000000000000000000000000000000000000000000000000000000000815260040180806020018281038252600d8152602001807f4572726f72206d696e74696e670000000000000000000000000000000000000081525060200191505060405180910390fd5b60008173ffffffffffffffffffffffffffffffffffffffff1663182df0f56040518163ffffffff167c010000000000000000000000000000000000000000000000000000000002815260040160206040518083038186803b15801561453557600080fd5b505afa158015614549573d6000803e3d6000fd5b505050506040513d602081101561455f57600080fd5b8101908080519060200190929190505050905061459f81614591670de0b6b3a764000087613d6590919063ffffffff16565b613def90919063ffffffff16565b925050505b919050565b600080600d60009054906101000a900473ffffffffffffffffffffffffffffffffffffffff1673ffffffffffffffffffffffffffffffffffffffff166370a08231306040518263ffffffff167c0100000000000000000000000000000000000000000000000000000000028152600401808273ffffffffffffffffffffffffffffffffffffffff1673ffffffffffffffffffffffffffffffffffffffff16815260200191505060206040518083038186803b15801561466757600080fd5b505afa15801561467b573d6000803e3d6000fd5b505050506040513d602081101561469157600080fd5b81019080805190602001909291905050501115156146b157809050614829565b614720600d60009054906101000a900473ffffffffffffffffffffffffffffffffffffffff1683600e60009054906101000a900473ffffffffffffffffffffffffffffffffffffffff1673ffffffffffffffffffffffffffffffffffffffff166152409092919063ffffffff16565b6000600d60009054906101000a900473ffffffffffffffffffffffffffffffffffffffff1690508073ffffffffffffffffffffffffffffffffffffffff166340c10f1930856040518363ffffffff167c0100000000000000000000000000000000000000000000000000000000028152600401808373ffffffffffffffffffffffffffffffffffffffff1673ffffffffffffffffffffffffffffffffffffffff16815260200182815260200192505050602060405180830381600087803b1580156147ea57600080fd5b505af11580156147fe573d6000803e3d6000fd5b505050506040513d602081101561481457600080fd5b81019080805190602001909291905050509150505b919050565b600073ffffffffffffffffffffffffffffffffffffffff168673ffffffffffffffffffffffffffffffffffffffff16141515156148b6576040517f08c379a00000000000000000000000000000000000000000000000000000000081526004018080602001828103825260228152602001806156a06022913960400191505060405180910390fd5b600073ffffffffffffffffffffffffffffffffffffffff168573ffffffffffffffffffffffffffffffffffffffff161415151561495b576040517f08c379a00000000000000000000000000000000000000000000000000000000081526004018080602001828103825260208152602001807f4552433737373a2073656e6420746f20746865207a65726f206164647265737381525060200191505060405180910390fd5b6149698787878787876132a8565b614977878787878787613609565b61498687878787878787613981565b50505050505050565b614aab848573ffffffffffffffffffffffffffffffffffffffff166323b872dd90507c010000000000000000000000000000000000000000000000000000000002858585604051602401808473ffffffffffffffffffffffffffffffffffffffff1673ffffffffffffffffffffffffffffffffffffffff1681526020018373ffffffffffffffffffffffffffffffffffffffff1673ffffffffffffffffffffffffffffffffffffffff1681526020018281526020019350505050604051602081830303815290604052907bffffffffffffffffffffffffffffffffffffffffffffffffffffffff19166020820180517bffffffffffffffffffffffffffffffffffffffffffffffffffffffff838183161783525050505061544c565b50505050565b600073ffffffffffffffffffffffffffffffffffffffff168473ffffffffffffffffffffffffffffffffffffffff1614151515614b56576040517f08c379a00000000000000000000000000000000000000000000000000000000081526004018080602001828103825260208152602001807f4552433737373a206d696e7420746f20746865207a65726f206164647265737381525060200191505060405180910390fd5b614b6b836002546150b690919063ffffffff16565b600281905550614bc383600160008773ffffffffffffffffffffffffffffffffffffffff1673ffffffffffffffffffffffffffffffffffffffff168152602001908152602001600020546150b690919063ffffffff16565b600160008673ffffffffffffffffffffffffffffffffffffffff1673ffffffffffffffffffffffffffffffffffffffff16815260200190815260200160002081905550614c17856000868686866001613981565b8373ffffffffffffffffffffffffffffffffffffffff168573ffffffffffffffffffffffffffffffffffffffff167f2fe5be0146f74c5bce36c0b80911af6c7d86ff27e89d5cfa61fc681327954e5d858585604051808481526020018060200180602001838103835285818151815260200191508051906020019080838360005b83811015614cb3578082015181840152602081019050614c98565b50505050905090810190601f168015614ce05780820380516001836020036101000a031916815260200191505b50838103825284818151815260200191508051906020019080838360005b83811015614d19578082015181840152602081019050614cfe565b50505050905090810190601f168015614d465780820380516001836020036101000a031916815260200191505b509550505050505060405180910390a38373ffffffffffffffffffffffffffffffffffffffff16600073ffffffffffffffffffffffffffffffffffffffff167fddf252ad1be2c89b69c2b068fc378daa952ba7f163c4a11628f55a4df523b3ef856040518082815260200191505060405180910390a35050505050565b600073ffffffffffffffffffffffffffffffffffffffff168473ffffffffffffffffffffffffffffffffffffffff1614151515614e4b576040517f08c379a00000000000000000000000000000000000000000000000000000000081526004018080602001828103825260228152602001806156c26022913960400191505060405180910390fd5b614e5a858560008686866132a8565b614e6f836002546138f690919063ffffffff16565b600281905550614ec783600160008773ffffffffffffffffffffffffffffffffffffffff1673ffffffffffffffffffffffffffffffffffffffff168152602001908152602001600020546138f690919063ffffffff16565b600160008673ffffffffffffffffffffffffffffffffffffffff1673ffffffffffffffffffffffffffffffffffffffff168152602001908152602001600020819055508373ffffffffffffffffffffffffffffffffffffffff168573ffffffffffffffffffffffffffffffffffffffff167fa78a9be3a7b862d26933ad85fb11d80ef66b8f972d7cbba06621d583943a4098858585604051808481526020018060200180602001838103835285818151815260200191508051906020019080838360005b83811015614fa6578082015181840152602081019050614f8b565b50505050905090810190601f168015614fd35780820380516001836020036101000a031916815260200191505b50838103825284818151815260200191508051906020019080838360005b8381101561500c578082015181840152602081019050614ff1565b50505050905090810190601f1680156150395780820380516001836020036101000a031916815260200191505b509550505050505060405180910390a3600073ffffffffffffffffffffffffffffffffffffffff168473ffffffffffffffffffffffffffffffffffffffff167fddf252ad1be2c89b69c2b068fc378daa952ba7f163c4a11628f55a4df523b3ef856040518082815260200191505060405180910390a35050505050565b6000808284019050838110151515615136576040517f08c379a000000000000000000000000000000000000000000000000000000000815260040180806020018281038252601b8152602001807f536166654d6174683a206164646974696f6e206f766572666c6f77000000000081525060200191505060405180910390fd5b8091505092915050565b600080823b905060008111915050919050565b61523b838473ffffffffffffffffffffffffffffffffffffffff1663a9059cbb90507c0100000000000000000000000000000000000000000000000000000000028484604051602401808373ffffffffffffffffffffffffffffffffffffffff1673ffffffffffffffffffffffffffffffffffffffff16815260200182815260200192505050604051602081830303815290604052907bffffffffffffffffffffffffffffffffffffffffffffffffffffffff19166020820180517bffffffffffffffffffffffffffffffffffffffffffffffffffffffff838183161783525050505061544c565b505050565b600061535c828573ffffffffffffffffffffffffffffffffffffffff1663dd62ed3e30876040518363ffffffff167c0100000000000000000000000000000000000000000000000000000000028152600401808373ffffffffffffffffffffffffffffffffffffffff1673ffffffffffffffffffffffffffffffffffffffff1681526020018273ffffffffffffffffffffffffffffffffffffffff1673ffffffffffffffffffffffffffffffffffffffff1681526020019250505060206040518083038186803b15801561531357600080fd5b505afa158015615327573d6000803e3d6000fd5b505050506040513d602081101561533d57600080fd5b81019080805190602001909291905050506150b690919063ffffffff16565b9050615446848573ffffffffffffffffffffffffffffffffffffffff1663095ea7b390507c0100000000000000000000000000000000000000000000000000000000028584604051602401808373ffffffffffffffffffffffffffffffffffffffff1673ffffffffffffffffffffffffffffffffffffffff16815260200182815260200192505050604051602081830303815290604052907bffffffffffffffffffffffffffffffffffffffffffffffffffffffff19166020820180517bffffffffffffffffffffffffffffffffffffffffffffffffffffffff838183161783525050505061544c565b50505050565b61546b8273ffffffffffffffffffffffffffffffffffffffff16615140565b15156154df576040517f08c379a000000000000000000000000000000000000000000000000000000000815260040180806020018281038252601f8152602001807f5361666545524332303a2063616c6c20746f206e6f6e2d636f6e74726163740081525060200191505060405180910390fd5b600060608373ffffffffffffffffffffffffffffffffffffffff16836040518082805190602001908083835b602083101515615530578051825260208201915060208101905060208303925061550b565b6001836020036101000a0380198251168184511680821785525050505050509050019150506000604051808303816000865af19150503d8060008114615592576040519150601f19603f3d011682016040523d82523d6000602084013e615597565b606091505b5091509150811515615611576040517f08c379a00000000000000000000000000000000000000000000000000000000081526004018080602001828103825260208152602001807f5361666545524332303a206c6f772d6c6576656c2063616c6c206661696c656481525060200191505060405180910390fd5b6000815111156156995780806020019051602081101561563057600080fd5b81019080805190602001909291905050501515615698576040517f08c379a000000000000000000000000000000000000000000000000000000000815260040180806020018281038252602a8152602001806157e7602a913960400191505060405180910390fd5b5b5050505056fe4552433737373a2073656e642066726f6d20746865207a65726f20616464726573734552433737373a206275726e2066726f6d20746865207a65726f20616464726573734552433737373a20617574686f72697a696e672073656c66206173206f70657261746f724552433737373a207265766f6b696e672073656c66206173206f70657261746f72536166654d6174683a206d756c7469706c69636174696f6e206f766572666c6f774552433737373a20746f6b656e20726563697069656e7420636f6e747261637420686173206e6f20696d706c656d656e74657220666f7220455243373737546f6b656e73526563697069656e744552433737373a207472616e7366657220746f20746865207a65726f20616464726573734552433737373a2063616c6c6572206973206e6f7420616e206f70657261746f7220666f7220686f6c6465725361666545524332303a204552433230206f7065726174696f6e20646964206e6f7420737563636565644552433737373a207472616e736665722066726f6d20746865207a65726f2061646472657373536f6d657468696e672077656e742077726f6e67207768656e2072656465656d696e6720696e2063546f6b656e734552433737373a20617070726f766520746f20746865207a65726f2061646472657373a165627a7a72305820fe53d54992311688e79fcdf97779b7989d841b69e4181f967ad0559406be61a20029",
  "source": "pragma solidity ^0.5.2;\n\nimport \"openzeppelin-solidity/contracts/token/ERC20/IERC20.sol\";\nimport \"openzeppelin-solidity/contracts/token/ERC777/ERC777.sol\";\nimport \"openzeppelin-solidity/contracts/utils/ReentrancyGuard.sol\";\n\nimport \"openzeppelin-solidity/contracts/math/SafeMath.sol\";\nimport \"openzeppelin-solidity/contracts/token/ERC20/SafeERC20.sol\";\n\nimport \"./interfaces/CERC20.sol\";\nimport \"./interfaces/iERC20.sol\";\nimport \"./IdleHelp.sol\";\n\n// TODO\n// in rebalanceCheck we should also check how much\n// the interest rate changes due to the new liquidity we provide\n\n// TODO we should inform the user of the eventual excess of token that can be redeemed directly in Fulcrum\n\n// TODO Add fee ?\n\ncontract IdleDAI is ERC777, ReentrancyGuard {\n  using SafeERC20 for IERC20;\n  using SafeMath for uint256;\n\n  address public owner;\n\n  address public cToken; // cTokens have 8 decimals\n  address public iToken; // iTokens have 18 decimals\n  address public token;\n  address public bestToken;\n\n  uint256 public blocksInAYear;\n  uint256 public minRateDifference;\n\n  /**\n   * @dev constructor\n   */\n  constructor(address _cToken, address _iToken, address _token)\n    public\n    ERC777(\"IdleDAI\", \"IDLEDAI\", new address[](0)) {\n      owner = msg.sender;\n      cToken = _cToken;\n      iToken = _iToken;\n      token = _token;\n      // TODO get it from compound contract directly\n      blocksInAYear = 2102400; // ~15 sec per block\n      minRateDifference = 500000000000000000; // 0.5% min\n  }\n\n  // onlyOwner\n  function setMinRateDifference(uint256 _rate)\n    external {\n      require(msg.sender == owner, 'Only owner');\n      minRateDifference = _rate;\n  }\n  function setBlocksInAYear(uint256 _blocks)\n    external {\n      require(msg.sender == owner, 'Only owner');\n      blocksInAYear = _blocks;\n  }\n\n  // public\n\n  /**\n   * @dev User should 'approve' _amount tokens before calling mintIndexToken\n   */\n  function mintIndexToken(uint256 _amount)\n    external nonReentrant\n    returns (uint256 mintedTokens) {\n      /* require(_amount > 0, \"Amount is not > 0\"); */\n      // get a handle for the underlying asset contract\n      IERC20 underlying = IERC20(token);\n      // transfer to this contract\n      underlying.safeTransferFrom(msg.sender, address(this), _amount);\n\n      rebalance();\n\n      uint256 mintedUnderlyingTokens;\n      if (bestToken == cToken) {\n        mintedUnderlyingTokens = _mintCTokens(_amount);\n      } else {\n        mintedUnderlyingTokens = _mintITokens(_amount);\n      }\n\n      if (bestToken == address(0)) {\n        _mint(msg.sender, msg.sender, _amount, \"\", \"\"); // 1:1\n        mintedTokens = _amount;\n      } else {\n        uint256 currTokenPrice = IdleHelp.getPriceInToken(cToken, iToken, bestToken, this.balanceOf(address(this)));\n        mintedTokens = _amount.div(currTokenPrice);\n        _mint(msg.sender, msg.sender, mintedTokens, \"\", \"\");\n      }\n  }\n\n  /**\n   * @dev here we calc the pool share of the cTokens | iTokens one can withdraw\n   */\n  function redeemIndexToken(uint256 _amount)\n    external nonReentrant\n    returns (uint256 tokensRedeemed) {\n    /* uint256 senderBalance = this.balanceOf(msg.sender); */\n    /* require(senderBalance > 0, \"senderBalance should be > 0\");\n    require(senderBalance >= _amount, \"senderBalance should be >= amount requested\"); */\n\n    uint256 idleSupply = this.totalSupply();\n    require(idleSupply > 0, 'No IDLEDAI have been issued');\n\n    if (bestToken == cToken) {\n      uint256 cPoolBalance = IERC20(cToken).balanceOf(address(this));\n      uint256 cDAItoRedeem = _amount.mul(cPoolBalance).div(idleSupply);\n      tokensRedeemed = _redeemCTokens(cDAItoRedeem, msg.sender); //TODO fee?\n    } else {\n      uint256 iPoolBalance = IERC20(iToken).balanceOf(address(this));\n      uint256 iDAItoRedeem = _amount.mul(iPoolBalance).div(idleSupply);\n      // TODO we should inform the user of the eventual excess of token that can be redeemed directly in Fulcrum\n      tokensRedeemed = _redeemITokens(iDAItoRedeem, msg.sender);\n    }\n    this.burn(_amount, '');\n\n    /* investedBalances[msg.sender] = investedBalances[msg.sender].sub(tokensRedeemed); */\n  }\n\n  /**\n   * @dev Convert cToken pool in iToken pool (or the contrary) if needed\n   * Everyone should be incentivized in calling this method\n   */\n  function rebalance()\n    public {\n      (bool shouldRebalance, address newBestTokenAddr) = IdleHelp.rebalanceCheck(cToken, iToken, bestToken, blocksInAYear, minRateDifference);\n      if (!shouldRebalance) {\n        return;\n      }\n\n      if (bestToken != address(0)) {\n        // bestToken here is the 'old' best token\n        if (bestToken == cToken) {\n          _redeemCTokens(IERC20(cToken).balanceOf(address(this)), address(this)); // token are now in this contract\n          _mintITokens(IERC20(token).balanceOf(address(this)));\n        } else {\n          _redeemITokens(IERC20(iToken).balanceOf(address(this)), address(this));\n          _mintCTokens(IERC20(token).balanceOf(address(this)));\n        }\n      }\n\n      // Update best token address\n      bestToken = newBestTokenAddr;\n  }\n  /**\n   * @dev here we are redeeming unclaimed token (from iToken contract) to this contracts\n   * then converting the claimedTokens in the bestToken after rebalancing\n   * Everyone should be incentivized in calling this method\n   */\n  function claimITokens()\n    external\n    returns (uint256 claimedTokens) {\n      claimedTokens = iERC20(iToken).claimLoanToken();\n      if (claimedTokens == 0) {\n        return claimedTokens;\n      }\n\n      rebalance();\n      if (bestToken == cToken) {\n        _mintCTokens(claimedTokens);\n      } else {\n        _mintITokens(claimedTokens);\n      }\n\n      return claimedTokens;\n  }\n\n  // internal\n  function _mintCTokens(uint256 _amount)\n    internal\n    returns (uint256 cTokens) {\n      if (IERC20(cToken).balanceOf(address(this)) == 0) {\n        return cTokens;\n      }\n      // approve the transfer to cToken contract\n      IERC20(token).safeIncreaseAllowance(cToken, _amount);\n\n      // get a handle for the corresponding cToken contract\n      CERC20 _cToken = CERC20(cToken);\n      // mint the cTokens and assert there is no error\n      require(_cToken.mint(_amount) == 0, \"Error minting\");\n      // cTokens are now in this contract\n\n      // generic solidity formula is exchangeRateMantissa = (underlying / cTokens) * 1e18\n      uint256 exchangeRateMantissa = _cToken.exchangeRateStored(); // (exchange_rate * 1e18)\n      // so cTokens = (underlying * 1e18) / exchangeRateMantissa\n      cTokens = _amount.mul(10**18).div(exchangeRateMantissa);\n  }\n  function _mintITokens(uint256 _amount)\n    internal\n    returns (uint256 iTokens) {\n      if (IERC20(iToken).balanceOf(address(this)) <= 0) {\n        return iTokens;\n      }\n      // approve the transfer to cToken contract\n      IERC20(token).safeIncreaseAllowance(iToken, _amount);\n      // get a handle for the corresponding iToken contract\n      iERC20 _iToken = iERC20(iToken);\n      // mint the iTokens\n      iTokens = _iToken.mint(address(this), _amount);\n  }\n\n  function _redeemCTokens(uint256 _amount, address _account)\n    internal\n    returns (uint256 tokens) {\n      CERC20 _cToken = CERC20(cToken);\n      // redeem all user's underlying\n      require(_cToken.redeem(_amount) == 0, \"Something went wrong when redeeming in cTokens\");\n\n      // generic solidity formula is exchangeRateMantissa = (underlying / cTokens) * 1e18\n      uint256 exchangeRateMantissa = _cToken.exchangeRateStored(); // exchange_rate * 1e18\n      // so underlying = (exchangeRateMantissa * cTokens) / 1e18\n      tokens = _amount.mul(exchangeRateMantissa).div(10**18);\n\n      if (_account != address(this)) {\n        IERC20(token).safeTransfer(_account, tokens);\n      }\n  }\n  function _redeemITokens(uint256 _amount, address _account)\n    internal\n    returns (uint256 tokens) {\n      tokens = iERC20(iToken).burn(_account, _amount);\n  }\n}\n",
  "sourcePath": "/home/bugman/Projects/idle/contracts/IdleDAI.sol",
  "compiler": {
    "name": "solc",
    "version": "0.5.2+commit.1df8f40c.Emscripten.clang"
  },
  "schemaVersion": "3.0.11",
  "updatedAt": "2019-07-04T16:14:07.706Z",
  "devdoc": {
    "methods": {
      "allowance(address,address)": {
        "details": "See `IERC20.allowance`.     * Note that operator and allowance concepts are orthogonal: operators may not have allowance, and accounts with allowance may not be operators themselves."
      },
      "approve(address,uint256)": {
        "details": "See `IERC20.approve`.     * Note that accounts cannot have allowance issued by their operators."
      },
      "authorizeOperator(address)": {
        "details": "See `IERC777.authorizeOperator`."
      },
      "balanceOf(address)": {
        "details": "Returns the amount of tokens owned by an account (`tokenHolder`)."
      },
      "burn(uint256,bytes)": {
        "details": "See `IERC777.burn`.     * Also emits a `Transfer` event for ERC20 compatibility."
      },
      "claimITokens()": {
        "details": "here we are redeeming unclaimed token (from iToken contract) to this contracts then converting the claimedTokens in the bestToken after rebalancing Everyone should be incentivized in calling this method"
      },
      "constructor": {
        "details": "constructor"
      },
      "decimals()": {
        "details": "See `ERC20Detailed.decimals`.     * Always returns 18, as per the [ERC777 EIP](https://eips.ethereum.org/EIPS/eip-777#backward-compatibility)."
      },
      "defaultOperators()": {
        "details": "See `IERC777.defaultOperators`."
      },
      "granularity()": {
        "details": "See `IERC777.granularity`.     * This implementation always returns `1`."
      },
      "isOperatorFor(address,address)": {
        "details": "See `IERC777.isOperatorFor`."
      },
      "mintIndexToken(uint256)": {
        "details": "User should 'approve' _amount tokens before calling mintIndexToken"
      },
      "name()": {
        "details": "See `IERC777.name`."
      },
      "operatorBurn(address,uint256,bytes,bytes)": {
        "details": "See `IERC777.operatorBurn`.     * Emits `Sent` and `Transfer` events."
      },
      "operatorSend(address,address,uint256,bytes,bytes)": {
        "details": "See `IERC777.operatorSend`.     * Emits `Sent` and `Transfer` events."
      },
      "rebalance()": {
        "details": "Convert cToken pool in iToken pool (or the contrary) if needed Everyone should be incentivized in calling this method"
      },
      "redeemIndexToken(uint256)": {
        "details": "here we calc the pool share of the cTokens | iTokens one can withdraw"
      },
      "revokeOperator(address)": {
        "details": "See `IERC777.revokeOperator`."
      },
      "send(address,uint256,bytes)": {
        "details": "See `IERC777.send`.     * Also emits a `Transfer` event for ERC20 compatibility."
      },
      "symbol()": {
        "details": "See `IERC777.symbol`."
      },
      "totalSupply()": {
        "details": "See `IERC777.totalSupply`."
      },
      "transfer(address,uint256)": {
        "details": "See `IERC20.transfer`.     * Unlike `send`, `recipient` is _not_ required to implement the `tokensReceived` interface if it is a contract.     * Also emits a `Sent` event."
      },
      "transferFrom(address,address,uint256)": {
        "details": "See `IERC20.transferFrom`.    * Note that operator and allowance concepts are orthogonal: operators cannot call `transferFrom` (unless they have allowance), and accounts with allowance cannot call `operatorSend` (unless they are operators).    * Emits `Sent` and `Transfer` events."
      }
    }
  },
  "userdoc": {
    "methods": {}
  }
}