{
  "contractName": "IdleDAI",
  "abi": [
    {
      "constant": true,
      "inputs": [],
      "name": "defaultOperators",
      "outputs": [
        {
          "name": "",
          "type": "address[]"
        }
      ],
      "payable": false,
      "stateMutability": "view",
      "type": "function"
    },
    {
      "constant": true,
      "inputs": [],
      "name": "name",
      "outputs": [
        {
          "name": "",
          "type": "string"
        }
      ],
      "payable": false,
      "stateMutability": "view",
      "type": "function"
    },
    {
      "constant": false,
      "inputs": [
        {
          "name": "spender",
          "type": "address"
        },
        {
          "name": "value",
          "type": "uint256"
        }
      ],
      "name": "approve",
      "outputs": [
        {
          "name": "",
          "type": "bool"
        }
      ],
      "payable": false,
      "stateMutability": "nonpayable",
      "type": "function"
    },
    {
      "constant": true,
      "inputs": [],
      "name": "totalSupply",
      "outputs": [
        {
          "name": "",
          "type": "uint256"
        }
      ],
      "payable": false,
      "stateMutability": "view",
      "type": "function"
    },
    {
      "constant": true,
      "inputs": [],
      "name": "minRateDifference",
      "outputs": [
        {
          "name": "",
          "type": "uint256"
        }
      ],
      "payable": false,
      "stateMutability": "view",
      "type": "function"
    },
    {
      "constant": false,
      "inputs": [
        {
          "name": "holder",
          "type": "address"
        },
        {
          "name": "recipient",
          "type": "address"
        },
        {
          "name": "amount",
          "type": "uint256"
        }
      ],
      "name": "transferFrom",
      "outputs": [
        {
          "name": "",
          "type": "bool"
        }
      ],
      "payable": false,
      "stateMutability": "nonpayable",
      "type": "function"
    },
    {
      "constant": true,
      "inputs": [],
      "name": "decimals",
      "outputs": [
        {
          "name": "",
          "type": "uint8"
        }
      ],
      "payable": false,
      "stateMutability": "pure",
      "type": "function"
    },
    {
      "constant": true,
      "inputs": [],
      "name": "iToken",
      "outputs": [
        {
          "name": "",
          "type": "address"
        }
      ],
      "payable": false,
      "stateMutability": "view",
      "type": "function"
    },
    {
      "constant": true,
      "inputs": [],
      "name": "blocksInAYear",
      "outputs": [
        {
          "name": "",
          "type": "uint256"
        }
      ],
      "payable": false,
      "stateMutability": "view",
      "type": "function"
    },
    {
      "constant": true,
      "inputs": [],
      "name": "bestToken",
      "outputs": [
        {
          "name": "",
          "type": "address"
        }
      ],
      "payable": false,
      "stateMutability": "view",
      "type": "function"
    },
    {
      "constant": true,
      "inputs": [],
      "name": "granularity",
      "outputs": [
        {
          "name": "",
          "type": "uint256"
        }
      ],
      "payable": false,
      "stateMutability": "view",
      "type": "function"
    },
    {
      "constant": false,
      "inputs": [
        {
          "name": "sender",
          "type": "address"
        },
        {
          "name": "recipient",
          "type": "address"
        },
        {
          "name": "amount",
          "type": "uint256"
        },
        {
          "name": "data",
          "type": "bytes"
        },
        {
          "name": "operatorData",
          "type": "bytes"
        }
      ],
      "name": "operatorSend",
      "outputs": [],
      "payable": false,
      "stateMutability": "nonpayable",
      "type": "function"
    },
    {
      "constant": true,
      "inputs": [],
      "name": "cToken",
      "outputs": [
        {
          "name": "",
          "type": "address"
        }
      ],
      "payable": false,
      "stateMutability": "view",
      "type": "function"
    },
    {
      "constant": true,
      "inputs": [
        {
          "name": "tokenHolder",
          "type": "address"
        }
      ],
      "name": "balanceOf",
      "outputs": [
        {
          "name": "",
          "type": "uint256"
        }
      ],
      "payable": false,
      "stateMutability": "view",
      "type": "function"
    },
    {
      "constant": true,
      "inputs": [],
      "name": "owner",
      "outputs": [
        {
          "name": "",
          "type": "address"
        }
      ],
      "payable": false,
      "stateMutability": "view",
      "type": "function"
    },
    {
      "constant": false,
      "inputs": [
        {
          "name": "operator",
          "type": "address"
        }
      ],
      "name": "authorizeOperator",
      "outputs": [],
      "payable": false,
      "stateMutability": "nonpayable",
      "type": "function"
    },
    {
      "constant": true,
      "inputs": [],
      "name": "symbol",
      "outputs": [
        {
          "name": "",
          "type": "string"
        }
      ],
      "payable": false,
      "stateMutability": "view",
      "type": "function"
    },
    {
      "constant": false,
      "inputs": [
        {
          "name": "recipient",
          "type": "address"
        },
        {
          "name": "amount",
          "type": "uint256"
        },
        {
          "name": "data",
          "type": "bytes"
        }
      ],
      "name": "send",
      "outputs": [],
      "payable": false,
      "stateMutability": "nonpayable",
      "type": "function"
    },
    {
      "constant": false,
      "inputs": [
        {
          "name": "recipient",
          "type": "address"
        },
        {
          "name": "amount",
          "type": "uint256"
        }
      ],
      "name": "transfer",
      "outputs": [
        {
          "name": "",
          "type": "bool"
        }
      ],
      "payable": false,
      "stateMutability": "nonpayable",
      "type": "function"
    },
    {
      "constant": true,
      "inputs": [
        {
          "name": "operator",
          "type": "address"
        },
        {
          "name": "tokenHolder",
          "type": "address"
        }
      ],
      "name": "isOperatorFor",
      "outputs": [
        {
          "name": "",
          "type": "bool"
        }
      ],
      "payable": false,
      "stateMutability": "view",
      "type": "function"
    },
    {
      "constant": true,
      "inputs": [
        {
          "name": "holder",
          "type": "address"
        },
        {
          "name": "spender",
          "type": "address"
        }
      ],
      "name": "allowance",
      "outputs": [
        {
          "name": "",
          "type": "uint256"
        }
      ],
      "payable": false,
      "stateMutability": "view",
      "type": "function"
    },
    {
      "constant": false,
      "inputs": [
        {
          "name": "operator",
          "type": "address"
        }
      ],
      "name": "revokeOperator",
      "outputs": [],
      "payable": false,
      "stateMutability": "nonpayable",
      "type": "function"
    },
    {
      "constant": true,
      "inputs": [],
      "name": "token",
      "outputs": [
        {
          "name": "",
          "type": "address"
        }
      ],
      "payable": false,
      "stateMutability": "view",
      "type": "function"
    },
    {
      "constant": false,
      "inputs": [
        {
          "name": "account",
          "type": "address"
        },
        {
          "name": "amount",
          "type": "uint256"
        },
        {
          "name": "data",
          "type": "bytes"
        },
        {
          "name": "operatorData",
          "type": "bytes"
        }
      ],
      "name": "operatorBurn",
      "outputs": [],
      "payable": false,
      "stateMutability": "nonpayable",
      "type": "function"
    },
    {
      "constant": false,
      "inputs": [
        {
          "name": "amount",
          "type": "uint256"
        },
        {
          "name": "data",
          "type": "bytes"
        }
      ],
      "name": "burn",
      "outputs": [],
      "payable": false,
      "stateMutability": "nonpayable",
      "type": "function"
    },
    {
      "inputs": [
        {
          "name": "_cToken",
          "type": "address"
        },
        {
          "name": "_iToken",
          "type": "address"
        },
        {
          "name": "_token",
          "type": "address"
        }
      ],
      "payable": false,
      "stateMutability": "nonpayable",
      "type": "constructor"
    },
    {
      "anonymous": false,
      "inputs": [
        {
          "indexed": true,
          "name": "from",
          "type": "address"
        },
        {
          "indexed": true,
          "name": "to",
          "type": "address"
        },
        {
          "indexed": false,
          "name": "value",
          "type": "uint256"
        }
      ],
      "name": "Transfer",
      "type": "event"
    },
    {
      "anonymous": false,
      "inputs": [
        {
          "indexed": true,
          "name": "owner",
          "type": "address"
        },
        {
          "indexed": true,
          "name": "spender",
          "type": "address"
        },
        {
          "indexed": false,
          "name": "value",
          "type": "uint256"
        }
      ],
      "name": "Approval",
      "type": "event"
    },
    {
      "anonymous": false,
      "inputs": [
        {
          "indexed": true,
          "name": "operator",
          "type": "address"
        },
        {
          "indexed": true,
          "name": "from",
          "type": "address"
        },
        {
          "indexed": true,
          "name": "to",
          "type": "address"
        },
        {
          "indexed": false,
          "name": "amount",
          "type": "uint256"
        },
        {
          "indexed": false,
          "name": "data",
          "type": "bytes"
        },
        {
          "indexed": false,
          "name": "operatorData",
          "type": "bytes"
        }
      ],
      "name": "Sent",
      "type": "event"
    },
    {
      "anonymous": false,
      "inputs": [
        {
          "indexed": true,
          "name": "operator",
          "type": "address"
        },
        {
          "indexed": true,
          "name": "to",
          "type": "address"
        },
        {
          "indexed": false,
          "name": "amount",
          "type": "uint256"
        },
        {
          "indexed": false,
          "name": "data",
          "type": "bytes"
        },
        {
          "indexed": false,
          "name": "operatorData",
          "type": "bytes"
        }
      ],
      "name": "Minted",
      "type": "event"
    },
    {
      "anonymous": false,
      "inputs": [
        {
          "indexed": true,
          "name": "operator",
          "type": "address"
        },
        {
          "indexed": true,
          "name": "from",
          "type": "address"
        },
        {
          "indexed": false,
          "name": "amount",
          "type": "uint256"
        },
        {
          "indexed": false,
          "name": "data",
          "type": "bytes"
        },
        {
          "indexed": false,
          "name": "operatorData",
          "type": "bytes"
        }
      ],
      "name": "Burned",
      "type": "event"
    },
    {
      "anonymous": false,
      "inputs": [
        {
          "indexed": true,
          "name": "operator",
          "type": "address"
        },
        {
          "indexed": true,
          "name": "tokenHolder",
          "type": "address"
        }
      ],
      "name": "AuthorizedOperator",
      "type": "event"
    },
    {
      "anonymous": false,
      "inputs": [
        {
          "indexed": true,
          "name": "operator",
          "type": "address"
        },
        {
          "indexed": true,
          "name": "tokenHolder",
          "type": "address"
        }
      ],
      "name": "RevokedOperator",
      "type": "event"
    },
    {
      "constant": false,
      "inputs": [
        {
          "name": "_rate",
          "type": "uint256"
        }
      ],
      "name": "setMinRateDifference",
      "outputs": [],
      "payable": false,
      "stateMutability": "nonpayable",
      "type": "function"
    },
    {
      "constant": false,
      "inputs": [
        {
          "name": "_blocks",
          "type": "uint256"
        }
      ],
      "name": "setBlocksInAYear",
      "outputs": [],
      "payable": false,
      "stateMutability": "nonpayable",
      "type": "function"
    },
    {
      "constant": false,
      "inputs": [
        {
          "name": "_amount",
          "type": "uint256"
        }
      ],
      "name": "mintIndexToken",
      "outputs": [
        {
          "name": "mintedTokens",
          "type": "uint256"
        }
      ],
      "payable": false,
      "stateMutability": "nonpayable",
      "type": "function"
    },
    {
      "constant": false,
      "inputs": [
        {
          "name": "_amount",
          "type": "uint256"
        }
      ],
      "name": "redeemIndexToken",
      "outputs": [
        {
          "name": "tokensRedeemed",
          "type": "uint256"
        }
      ],
      "payable": false,
      "stateMutability": "nonpayable",
      "type": "function"
    },
    {
      "constant": false,
      "inputs": [],
      "name": "rebalance",
      "outputs": [],
      "payable": false,
      "stateMutability": "nonpayable",
      "type": "function"
    },
    {
      "constant": false,
      "inputs": [],
      "name": "claimITokens",
      "outputs": [
        {
          "name": "claimedTokens",
          "type": "uint256"
        }
      ],
      "payable": false,
      "stateMutability": "nonpayable",
      "type": "function"
    }
  ],
  "bytecode": "0x6080604052731820a4b7618bde71dce8cdc73aab6c95905fad246000806101000a81548173ffffffffffffffffffffffffffffffffffffffff021916908373ffffffffffffffffffffffffffffffffffffffff1602179055503480156200006557600080fd5b506040516060806200620a833981018060405260608110156200008757600080fd5b810190808051906020019092919080519060200190929190805190602001909291905050506040805190810160405280600781526020017f49646c65444149000000000000000000000000000000000000000000000000008152506040805190810160405280600781526020017f49444c45444149000000000000000000000000000000000000000000000000008152506000604051908082528060200260200182016040528015620001495781602001602082028038833980820191505090505b5082600390805190602001906200016292919062000609565b5081600490805190602001906200017b92919062000609565b5080600590805190602001906200019492919062000690565b5060008090505b6005805490508110156200024957600160066000600584815481101515620001bf57fe5b9060005260206000200160009054906101000a900473ffffffffffffffffffffffffffffffffffffffff1673ffffffffffffffffffffffffffffffffffffffff1673ffffffffffffffffffffffffffffffffffffffff16815260200190815260200160002060006101000a81548160ff02191690831515021790555080806001019150506200019b565b506000809054906101000a900473ffffffffffffffffffffffffffffffffffffffff1673ffffffffffffffffffffffffffffffffffffffff166329965a1d3060405180807f455243373737546f6b656e000000000000000000000000000000000000000000815250600b0190506040518091039020306040518463ffffffff167c0100000000000000000000000000000000000000000000000000000000028152600401808473ffffffffffffffffffffffffffffffffffffffff1673ffffffffffffffffffffffffffffffffffffffff1681526020018381526020018273ffffffffffffffffffffffffffffffffffffffff1673ffffffffffffffffffffffffffffffffffffffff1681526020019350505050600060405180830381600087803b1580156200037857600080fd5b505af11580156200038d573d6000803e3d6000fd5b505050506000809054906101000a900473ffffffffffffffffffffffffffffffffffffffff1673ffffffffffffffffffffffffffffffffffffffff166329965a1d3060405180807f4552433230546f6b656e00000000000000000000000000000000000000000000815250600a0190506040518091039020306040518463ffffffff167c0100000000000000000000000000000000000000000000000000000000028152600401808473ffffffffffffffffffffffffffffffffffffffff1673ffffffffffffffffffffffffffffffffffffffff1681526020018381526020018273ffffffffffffffffffffffffffffffffffffffff1673ffffffffffffffffffffffffffffffffffffffff1681526020019350505050600060405180830381600087803b158015620004bf57600080fd5b505af1158015620004d4573d6000803e3d6000fd5b505050505050506001600a8190555033600b60006101000a81548173ffffffffffffffffffffffffffffffffffffffff021916908373ffffffffffffffffffffffffffffffffffffffff16021790555082600c60006101000a81548173ffffffffffffffffffffffffffffffffffffffff021916908373ffffffffffffffffffffffffffffffffffffffff16021790555081600d60006101000a81548173ffffffffffffffffffffffffffffffffffffffff021916908373ffffffffffffffffffffffffffffffffffffffff16021790555080600e60006101000a81548173ffffffffffffffffffffffffffffffffffffffff021916908373ffffffffffffffffffffffffffffffffffffffff160217905550622014806010819055506706f05b59d3b200006011819055505050506200078d565b828054600181600116156101000203166002900490600052602060002090601f016020900481019282601f106200064c57805160ff19168380011785556200067d565b828001600101855582156200067d579182015b828111156200067c5782518255916020019190600101906200065f565b5b5090506200068c91906200071f565b5090565b8280548282559060005260206000209081019282156200070c579160200282015b828111156200070b5782518260006101000a81548173ffffffffffffffffffffffffffffffffffffffff021916908373ffffffffffffffffffffffffffffffffffffffff16021790555091602001919060010190620006b1565b5b5090506200071b919062000747565b5090565b6200074491905b808211156200074057600081600090555060010162000726565b5090565b90565b6200078a91905b808211156200078657600081816101000a81549073ffffffffffffffffffffffffffffffffffffffff0219169055506001016200074e565b5090565b90565b615a6d806200079d6000396000f3fe608060405234801561001057600080fd5b5060043610610202576000357c01000000000000000000000000000000000000000000000000000000009004806367f8d85d1161012c5780639bd9bbc6116100bf578063fad8b32a1161008e578063fad8b32a14610ad5578063fc0c546a14610b19578063fc673c4f14610b63578063fe9d930314610c5b57610202565b80639bd9bbc6146108d8578063a9059cbb1461097b578063d95b6371146109e1578063dd62ed3e14610a5d57610202565b80638da5cb5b116100fb5780638da5cb5b146107855780638e94319d146107cf578063959b8c3f1461081157806395d89b411461085557610202565b806367f8d85d146106ab57806369e527da146106d957806370a08231146107235780637d7c2a1c1461077b57610202565b8063313ce567116101a457806351707e461161017357806351707e461461050d578063556f0dc714610557578063621eb0931461057557806362ad1b831461059357610202565b8063313ce5671461043f578063408cfe241461046357806348ab4359146104ad5780634d02f1c2146104ef57610202565b806318160ddd116101e057806318160ddd1461034f5780631aaa4a181461036d57806322c9f9711461039b57806323b872dd146103b957610202565b806306e485381461020757806306fdde0314610266578063095ea7b3146102e9575b600080fd5b61020f610cde565b6040518080602001828103825283818151815260200191508051906020019060200280838360005b83811015610252578082015181840152602081019050610237565b505050509050019250505060405180910390f35b61026e610d6c565b6040518080602001828103825283818151815260200191508051906020019080838360005b838110156102ae578082015181840152602081019050610293565b50505050905090810190601f1680156102db5780820380516001836020036101000a031916815260200191505b509250505060405180910390f35b610335600480360360408110156102ff57600080fd5b81019080803573ffffffffffffffffffffffffffffffffffffffff16906020019092919080359060200190929190505050610e0e565b604051808215151515815260200191505060405180910390f35b610357610e2a565b6040518082815260200191505060405180910390f35b6103996004803603602081101561038357600080fd5b8101908080359060200190929190505050610e34565b005b6103a3610f03565b6040518082815260200191505060405180910390f35b610425600480360360608110156103cf57600080fd5b81019080803573ffffffffffffffffffffffffffffffffffffffff169060200190929190803573ffffffffffffffffffffffffffffffffffffffff16906020019092919080359060200190929190505050610f09565b604051808215151515815260200191505060405180910390f35b610447611150565b604051808260ff1660ff16815260200191505060405180910390f35b61046b611159565b604051808273ffffffffffffffffffffffffffffffffffffffff1673ffffffffffffffffffffffffffffffffffffffff16815260200191505060405180910390f35b6104d9600480360360208110156104c357600080fd5b810190808035906020019092919050505061117f565b6040518082815260200191505060405180910390f35b6104f7611859565b6040518082815260200191505060405180910390f35b61051561185f565b604051808273ffffffffffffffffffffffffffffffffffffffff1673ffffffffffffffffffffffffffffffffffffffff16815260200191505060405180910390f35b61055f611885565b6040518082815260200191505060405180910390f35b61057d61188e565b6040518082815260200191505060405180910390f35b6106a9600480360360a08110156105a957600080fd5b81019080803573ffffffffffffffffffffffffffffffffffffffff169060200190929190803573ffffffffffffffffffffffffffffffffffffffff169060200190929190803590602001909291908035906020019064010000000081111561061057600080fd5b82018360208201111561062257600080fd5b8035906020019184600183028401116401000000008311171561064457600080fd5b90919293919293908035906020019064010000000081111561066557600080fd5b82018360208201111561067757600080fd5b8035906020019184600183028401116401000000008311171561069957600080fd5b9091929391929390505050611a07565b005b6106d7600480360360208110156106c157600080fd5b8101908080359060200190929190505050611b09565b005b6106e1611bd8565b604051808273ffffffffffffffffffffffffffffffffffffffff1673ffffffffffffffffffffffffffffffffffffffff16815260200191505060405180910390f35b6107656004803603602081101561073957600080fd5b81019080803573ffffffffffffffffffffffffffffffffffffffff169060200190929190505050611bfe565b6040518082815260200191505060405180910390f35b610783611c47565b005b61078d612334565b604051808273ffffffffffffffffffffffffffffffffffffffff1673ffffffffffffffffffffffffffffffffffffffff16815260200191505060405180910390f35b6107fb600480360360208110156107e557600080fd5b810190808035906020019092919050505061235a565b6040518082815260200191505060405180910390f35b6108536004803603602081101561082757600080fd5b81019080803573ffffffffffffffffffffffffffffffffffffffff169060200190929190505050612809565b005b61085d612a66565b6040518080602001828103825283818151815260200191508051906020019080838360005b8381101561089d578082015181840152602081019050610882565b50505050905090810190601f1680156108ca5780820380516001836020036101000a031916815260200191505b509250505060405180910390f35b610979600480360360608110156108ee57600080fd5b81019080803573ffffffffffffffffffffffffffffffffffffffff169060200190929190803590602001909291908035906020019064010000000081111561093557600080fd5b82018360208201111561094757600080fd5b8035906020019184600183028401116401000000008311171561096957600080fd5b9091929391929390505050612b08565b005b6109c76004803603604081101561099157600080fd5b81019080803573ffffffffffffffffffffffffffffffffffffffff16906020019092919080359060200190929190505050612b72565b604051808215151515815260200191505060405180910390f35b610a43600480360360408110156109f757600080fd5b81019080803573ffffffffffffffffffffffffffffffffffffffff169060200190929190803573ffffffffffffffffffffffffffffffffffffffff169060200190929190505050612c97565b604051808215151515815260200191505060405180910390f35b610abf60048036036040811015610a7357600080fd5b81019080803573ffffffffffffffffffffffffffffffffffffffff169060200190929190803573ffffffffffffffffffffffffffffffffffffffff169060200190929190505050612e48565b6040518082815260200191505060405180910390f35b610b1760048036036020811015610aeb57600080fd5b81019080803573ffffffffffffffffffffffffffffffffffffffff169060200190929190505050612ecf565b005b610b2161312c565b604051808273ffffffffffffffffffffffffffffffffffffffff1673ffffffffffffffffffffffffffffffffffffffff16815260200191505060405180910390f35b610c5960048036036080811015610b7957600080fd5b81019080803573ffffffffffffffffffffffffffffffffffffffff1690602001909291908035906020019092919080359060200190640100000000811115610bc057600080fd5b820183602082011115610bd257600080fd5b80359060200191846001830284011164010000000083111715610bf457600080fd5b909192939192939080359060200190640100000000811115610c1557600080fd5b820183602082011115610c2757600080fd5b80359060200191846001830284011164010000000083111715610c4957600080fd5b9091929391929390505050613152565b005b610cdc60048036036040811015610c7157600080fd5b810190808035906020019092919080359060200190640100000000811115610c9857600080fd5b820183602082011115610caa57600080fd5b80359060200191846001830284011164010000000083111715610ccc57600080fd5b9091929391929390505050613250565b005b60606005805480602002602001604051908101604052809291908181526020018280548015610d6257602002820191906000526020600020905b8160009054906101000a900473ffffffffffffffffffffffffffffffffffffffff1673ffffffffffffffffffffffffffffffffffffffff1681526020019060010190808311610d18575b5050505050905090565b606060038054600181600116156101000203166002900480601f016020809104026020016040519081016040528092919081815260200182805460018160011615610100020316600290048015610e045780601f10610dd957610100808354040283529160200191610e04565b820191906000526020600020905b815481529060010190602001808311610de757829003601f168201915b5050505050905090565b600080339050610e1f8185856132b6565b600191505092915050565b6000600254905090565b600b60009054906101000a900473ffffffffffffffffffffffffffffffffffffffff1673ffffffffffffffffffffffffffffffffffffffff163373ffffffffffffffffffffffffffffffffffffffff16141515610ef9576040517f08c379a000000000000000000000000000000000000000000000000000000000815260040180806020018281038252600a8152602001807f4f6e6c79206f776e65720000000000000000000000000000000000000000000081525060200191505060405180910390fd5b8060118190555050565b60115481565b60008073ffffffffffffffffffffffffffffffffffffffff168373ffffffffffffffffffffffffffffffffffffffff1614151515610f92576040517f08c379a00000000000000000000000000000000000000000000000000000000081526004018080602001828103825260248152602001806159516024913960400191505060405180910390fd5b600073ffffffffffffffffffffffffffffffffffffffff168473ffffffffffffffffffffffffffffffffffffffff161415151561101a576040517f08c379a00000000000000000000000000000000000000000000000000000000081526004018080602001828103825260268152602001806159cb6026913960400191505060405180910390fd5b600033905061104d8186868660206040519081016040528060008152506020604051908101604052806000815250613429565b61107b818686866020604051908101604052806000815250602060405190810160405280600081525061378a565b611114858261110f86600960008b73ffffffffffffffffffffffffffffffffffffffff1673ffffffffffffffffffffffffffffffffffffffff16815260200190815260200160002060008773ffffffffffffffffffffffffffffffffffffffff1673ffffffffffffffffffffffffffffffffffffffff16815260200190815260200160002054613a7790919063ffffffff16565b6132b6565b61114481868686602060405190810160405280600081525060206040519081016040528060008152506000613b02565b60019150509392505050565b60006012905090565b600d60009054906101000a900473ffffffffffffffffffffffffffffffffffffffff1681565b60006001600a600082825401925050819055506000600a54905060003073ffffffffffffffffffffffffffffffffffffffff166370a08231336040518263ffffffff167c0100000000000000000000000000000000000000000000000000000000028152600401808273ffffffffffffffffffffffffffffffffffffffff1673ffffffffffffffffffffffffffffffffffffffff16815260200191505060206040518083038186803b15801561123457600080fd5b505afa158015611248573d6000803e3d6000fd5b505050506040513d602081101561125e57600080fd5b810190808051906020019092919050505090506000811115156112e9576040517f08c379a000000000000000000000000000000000000000000000000000000000815260040180806020018281038252601b8152602001807f73656e64657242616c616e63652073686f756c64206265203e2030000000000081525060200191505060405180910390fd5b838110151515611344576040517f08c379a000000000000000000000000000000000000000000000000000000000815260040180806020018281038252602b815260200180615897602b913960400191505060405180910390fd5b60003073ffffffffffffffffffffffffffffffffffffffff166318160ddd6040518163ffffffff167c010000000000000000000000000000000000000000000000000000000002815260040160206040518083038186803b1580156113a857600080fd5b505afa1580156113bc573d6000803e3d6000fd5b505050506040513d60208110156113d257600080fd5b8101908080519060200190929190505050905060008111151561145d576040517f08c379a000000000000000000000000000000000000000000000000000000000815260040180806020018281038252601b8152602001807f4e6f2049444c454441492068617665206265656e20697373756564000000000081525060200191505060405180910390fd5b600c60009054906101000a900473ffffffffffffffffffffffffffffffffffffffff1673ffffffffffffffffffffffffffffffffffffffff16600f60009054906101000a900473ffffffffffffffffffffffffffffffffffffffff1673ffffffffffffffffffffffffffffffffffffffff16141561160b576000600c60009054906101000a900473ffffffffffffffffffffffffffffffffffffffff1673ffffffffffffffffffffffffffffffffffffffff166370a08231306040518263ffffffff167c0100000000000000000000000000000000000000000000000000000000028152600401808273ffffffffffffffffffffffffffffffffffffffff1673ffffffffffffffffffffffffffffffffffffffff16815260200191505060206040518083038186803b15801561159257600080fd5b505afa1580156115a6573d6000803e3d6000fd5b505050506040513d60208110156115bc57600080fd5b8101908080519060200190929190505050905060006115f6836115e8848a613ee690919063ffffffff16565b613f7090919063ffffffff16565b90506116028133614003565b9550505061173d565b6000600d60009054906101000a900473ffffffffffffffffffffffffffffffffffffffff1673ffffffffffffffffffffffffffffffffffffffff166370a08231306040518263ffffffff167c0100000000000000000000000000000000000000000000000000000000028152600401808273ffffffffffffffffffffffffffffffffffffffff1673ffffffffffffffffffffffffffffffffffffffff16815260200191505060206040518083038186803b1580156116c857600080fd5b505afa1580156116dc573d6000803e3d6000fd5b505050506040513d60208110156116f257600080fd5b81019080805190602001909291905050509050600061172c8361171e848a613ee690919063ffffffff16565b613f7090919063ffffffff16565b9050611738813361428a565b955050505b3073ffffffffffffffffffffffffffffffffffffffff1663fe9d9303866040518263ffffffff167c0100000000000000000000000000000000000000000000000000000000028152600401808281526020018060200182810382526000815260200160200192505050600060405180830381600087803b1580156117c057600080fd5b505af11580156117d4573d6000803e3d6000fd5b505050505050600a5481141515611853576040517f08c379a000000000000000000000000000000000000000000000000000000000815260040180806020018281038252601f8152602001807f5265656e7472616e637947756172643a207265656e7472616e742063616c6c0081525060200191505060405180910390fd5b50919050565b60105481565b600f60009054906101000a900473ffffffffffffffffffffffffffffffffffffffff1681565b60006001905090565b6000600d60009054906101000a900473ffffffffffffffffffffffffffffffffffffffff1673ffffffffffffffffffffffffffffffffffffffff1663087fc48b6040518163ffffffff167c0100000000000000000000000000000000000000000000000000000000028152600401602060405180830381600087803b15801561191657600080fd5b505af115801561192a573d6000803e3d6000fd5b505050506040513d602081101561194057600080fd5b810190808051906020019092919050505090506000811115156119665760009050611a04565b61196e611c47565b600c60009054906101000a900473ffffffffffffffffffffffffffffffffffffffff1673ffffffffffffffffffffffffffffffffffffffff16600f60009054906101000a900473ffffffffffffffffffffffffffffffffffffffff1673ffffffffffffffffffffffffffffffffffffffff1614156119f5576119ef81614399565b50611a00565b6119fe81614734565b505b8090505b90565b611a113388612c97565b1515611a68576040517f08c379a000000000000000000000000000000000000000000000000000000000815260040180806020018281038252602c815260200180615975602c913960400191505060405180910390fd5b611b003388888888888080601f016020809104026020016040519081016040528093929190818152602001838380828437600081840152601f19601f8201169050808301925050505050505087878080601f016020809104026020016040519081016040528093929190818152602001838380828437600081840152601f19601f8201169050808301925050505050505060016149bd565b50505050505050565b600b60009054906101000a900473ffffffffffffffffffffffffffffffffffffffff1673ffffffffffffffffffffffffffffffffffffffff163373ffffffffffffffffffffffffffffffffffffffff16141515611bce576040517f08c379a000000000000000000000000000000000000000000000000000000000815260040180806020018281038252600a8152602001807f4f6e6c79206f776e65720000000000000000000000000000000000000000000081525060200191505060405180910390fd5b8060108190555050565b600c60009054906101000a900473ffffffffffffffffffffffffffffffffffffffff1681565b6000600160008373ffffffffffffffffffffffffffffffffffffffff1673ffffffffffffffffffffffffffffffffffffffff168152602001908152602001600020549050919050565b60008073__IdleHelp______________________________63a5ae97da600c60009054906101000a900473ffffffffffffffffffffffffffffffffffffffff16600d60009054906101000a900473ffffffffffffffffffffffffffffffffffffffff16600f60009054906101000a900473ffffffffffffffffffffffffffffffffffffffff166010546011546040518663ffffffff167c0100000000000000000000000000000000000000000000000000000000028152600401808673ffffffffffffffffffffffffffffffffffffffff1673ffffffffffffffffffffffffffffffffffffffff1681526020018573ffffffffffffffffffffffffffffffffffffffff1673ffffffffffffffffffffffffffffffffffffffff1681526020018473ffffffffffffffffffffffffffffffffffffffff1673ffffffffffffffffffffffffffffffffffffffff16815260200183815260200182815260200195505050505050604080518083038186803b158015611dc257600080fd5b505af4158015611dd6573d6000803e3d6000fd5b505050506040513d6040811015611dec57600080fd5b81019080805190602001909291908051906020019092919050505091509150811515611e19575050612332565b600073ffffffffffffffffffffffffffffffffffffffff16600f60009054906101000a900473ffffffffffffffffffffffffffffffffffffffff1673ffffffffffffffffffffffffffffffffffffffff161415156122ee57600c60009054906101000a900473ffffffffffffffffffffffffffffffffffffffff1673ffffffffffffffffffffffffffffffffffffffff16600f60009054906101000a900473ffffffffffffffffffffffffffffffffffffffff1673ffffffffffffffffffffffffffffffffffffffff1614156120ed57611fe8600c60009054906101000a900473ffffffffffffffffffffffffffffffffffffffff1673ffffffffffffffffffffffffffffffffffffffff166370a08231306040518263ffffffff167c0100000000000000000000000000000000000000000000000000000000028152600401808273ffffffffffffffffffffffffffffffffffffffff1673ffffffffffffffffffffffffffffffffffffffff16815260200191505060206040518083038186803b158015611fa757600080fd5b505afa158015611fbb573d6000803e3d6000fd5b505050506040513d6020811015611fd157600080fd5b810190808051906020019092919050505030614003565b506120e7600e60009054906101000a900473ffffffffffffffffffffffffffffffffffffffff1673ffffffffffffffffffffffffffffffffffffffff166370a08231306040518263ffffffff167c0100000000000000000000000000000000000000000000000000000000028152600401808273ffffffffffffffffffffffffffffffffffffffff1673ffffffffffffffffffffffffffffffffffffffff16815260200191505060206040518083038186803b1580156120a757600080fd5b505afa1580156120bb573d6000803e3d6000fd5b505050506040513d60208110156120d157600080fd5b8101908080519060200190929190505050614734565b506122ed565b6121ec600d60009054906101000a900473ffffffffffffffffffffffffffffffffffffffff1673ffffffffffffffffffffffffffffffffffffffff166370a08231306040518263ffffffff167c0100000000000000000000000000000000000000000000000000000000028152600401808273ffffffffffffffffffffffffffffffffffffffff1673ffffffffffffffffffffffffffffffffffffffff16815260200191505060206040518083038186803b1580156121ab57600080fd5b505afa1580156121bf573d6000803e3d6000fd5b505050506040513d60208110156121d557600080fd5b81019080805190602001909291905050503061428a565b506122eb600e60009054906101000a900473ffffffffffffffffffffffffffffffffffffffff1673ffffffffffffffffffffffffffffffffffffffff166370a08231306040518263ffffffff167c0100000000000000000000000000000000000000000000000000000000028152600401808273ffffffffffffffffffffffffffffffffffffffff1673ffffffffffffffffffffffffffffffffffffffff16815260200191505060206040518083038186803b1580156122ab57600080fd5b505afa1580156122bf573d6000803e3d6000fd5b505050506040513d60208110156122d557600080fd5b8101908080519060200190929190505050614399565b505b5b80600f60006101000a81548173ffffffffffffffffffffffffffffffffffffffff021916908373ffffffffffffffffffffffffffffffffffffffff16021790555050505b565b600b60009054906101000a900473ffffffffffffffffffffffffffffffffffffffff1681565b60006001600a600082825401925050819055506000600a5490506000600e60009054906101000a900473ffffffffffffffffffffffffffffffffffffffff1690506123c83330868473ffffffffffffffffffffffffffffffffffffffff16614b1e909392919063ffffffff16565b6123d0611c47565b6000600c60009054906101000a900473ffffffffffffffffffffffffffffffffffffffff1673ffffffffffffffffffffffffffffffffffffffff16600f60009054906101000a900473ffffffffffffffffffffffffffffffffffffffff1673ffffffffffffffffffffffffffffffffffffffff16141561245a5761245385614399565b9050612466565b61246385614734565b90505b600073ffffffffffffffffffffffffffffffffffffffff16600f60009054906101000a900473ffffffffffffffffffffffffffffffffffffffff1673ffffffffffffffffffffffffffffffffffffffff1614156124f2576124ea33338760206040519081016040528060008152506020604051908101604052806000815250614c40565b849350612788565b600073__IdleHelp______________________________63c8eceb51600c60009054906101000a900473ffffffffffffffffffffffffffffffffffffffff16600d60009054906101000a900473ffffffffffffffffffffffffffffffffffffffff16600f60009054906101000a900473ffffffffffffffffffffffffffffffffffffffff163073ffffffffffffffffffffffffffffffffffffffff166370a08231306040518263ffffffff167c0100000000000000000000000000000000000000000000000000000000028152600401808273ffffffffffffffffffffffffffffffffffffffff1673ffffffffffffffffffffffffffffffffffffffff16815260200191505060206040518083038186803b15801561261057600080fd5b505afa158015612624573d6000803e3d6000fd5b505050506040513d602081101561263a57600080fd5b81019080805190602001909291905050506040518563ffffffff167c0100000000000000000000000000000000000000000000000000000000028152600401808573ffffffffffffffffffffffffffffffffffffffff1673ffffffffffffffffffffffffffffffffffffffff1681526020018473ffffffffffffffffffffffffffffffffffffffff1673ffffffffffffffffffffffffffffffffffffffff1681526020018373ffffffffffffffffffffffffffffffffffffffff1673ffffffffffffffffffffffffffffffffffffffff16815260200182815260200194505050505060206040518083038186803b15801561273457600080fd5b505af4158015612748573d6000803e3d6000fd5b505050506040513d602081101561275e57600080fd5b810190808051906020019092919050505090506127848187613f7090919063ffffffff16565b9450505b5050600a5481141515612803576040517f08c379a000000000000000000000000000000000000000000000000000000000815260040180806020018281038252601f8152602001807f5265656e7472616e637947756172643a207265656e7472616e742063616c6c0081525060200191505060405180910390fd5b50919050565b8073ffffffffffffffffffffffffffffffffffffffff163373ffffffffffffffffffffffffffffffffffffffff1614151515612890576040517f08c379a00000000000000000000000000000000000000000000000000000000081526004018080602001828103825260248152602001806158736024913960400191505060405180910390fd5b600660008273ffffffffffffffffffffffffffffffffffffffff1673ffffffffffffffffffffffffffffffffffffffff16815260200190815260200160002060009054906101000a900460ff161561297357600860003373ffffffffffffffffffffffffffffffffffffffff1673ffffffffffffffffffffffffffffffffffffffff16815260200190815260200160002060008273ffffffffffffffffffffffffffffffffffffffff1673ffffffffffffffffffffffffffffffffffffffff16815260200190815260200160002060006101000a81549060ff0219169055612a09565b6001600760003373ffffffffffffffffffffffffffffffffffffffff1673ffffffffffffffffffffffffffffffffffffffff16815260200190815260200160002060008373ffffffffffffffffffffffffffffffffffffffff1673ffffffffffffffffffffffffffffffffffffffff16815260200190815260200160002060006101000a81548160ff0219169083151502179055505b3373ffffffffffffffffffffffffffffffffffffffff168173ffffffffffffffffffffffffffffffffffffffff167ff4caeb2d6ca8932a215a353d0703c326ec2d81fc68170f320eb2ab49e9df61f960405160405180910390a350565b606060048054600181600116156101000203166002900480601f016020809104026020016040519081016040528092919081815260200182805460018160011615610100020316600290048015612afe5780601f10612ad357610100808354040283529160200191612afe565b820191906000526020600020905b815481529060010190602001808311612ae157829003601f168201915b5050505050905090565b612b6c3333868686868080601f016020809104026020016040519081016040528093929190818152602001838380828437600081840152601f19601f82011690508083019250505050505050602060405190810160405280600081525060016149bd565b50505050565b60008073ffffffffffffffffffffffffffffffffffffffff168373ffffffffffffffffffffffffffffffffffffffff1614151515612bfb576040517f08c379a00000000000000000000000000000000000000000000000000000000081526004018080602001828103825260248152602001806159516024913960400191505060405180910390fd5b6000339050612c2e8182868660206040519081016040528060008152506020604051908101604052806000815250613429565b612c5c818286866020604051908101604052806000815250602060405190810160405280600081525061378a565b612c8c81828686602060405190810160405280600081525060206040519081016040528060008152506000613b02565b600191505092915050565b60008173ffffffffffffffffffffffffffffffffffffffff168373ffffffffffffffffffffffffffffffffffffffff161480612daf5750600660008473ffffffffffffffffffffffffffffffffffffffff1673ffffffffffffffffffffffffffffffffffffffff16815260200190815260200160002060009054906101000a900460ff168015612dae5750600860008373ffffffffffffffffffffffffffffffffffffffff1673ffffffffffffffffffffffffffffffffffffffff16815260200190815260200160002060008473ffffffffffffffffffffffffffffffffffffffff1673ffffffffffffffffffffffffffffffffffffffff16815260200190815260200160002060009054906101000a900460ff16155b5b80612e405750600760008373ffffffffffffffffffffffffffffffffffffffff1673ffffffffffffffffffffffffffffffffffffffff16815260200190815260200160002060008473ffffffffffffffffffffffffffffffffffffffff1673ffffffffffffffffffffffffffffffffffffffff16815260200190815260200160002060009054906101000a900460ff165b905092915050565b6000600960008473ffffffffffffffffffffffffffffffffffffffff1673ffffffffffffffffffffffffffffffffffffffff16815260200190815260200160002060008373ffffffffffffffffffffffffffffffffffffffff1673ffffffffffffffffffffffffffffffffffffffff16815260200190815260200160002054905092915050565b3373ffffffffffffffffffffffffffffffffffffffff168173ffffffffffffffffffffffffffffffffffffffff1614151515612f56576040517f08c379a00000000000000000000000000000000000000000000000000000000081526004018080602001828103825260218152602001806158c26021913960400191505060405180910390fd5b600660008273ffffffffffffffffffffffffffffffffffffffff1673ffffffffffffffffffffffffffffffffffffffff16815260200190815260200160002060009054906101000a900460ff1615613042576001600860003373ffffffffffffffffffffffffffffffffffffffff1673ffffffffffffffffffffffffffffffffffffffff16815260200190815260200160002060008373ffffffffffffffffffffffffffffffffffffffff1673ffffffffffffffffffffffffffffffffffffffff16815260200190815260200160002060006101000a81548160ff0219169083151502179055506130cf565b600760003373ffffffffffffffffffffffffffffffffffffffff1673ffffffffffffffffffffffffffffffffffffffff16815260200190815260200160002060008273ffffffffffffffffffffffffffffffffffffffff1673ffffffffffffffffffffffffffffffffffffffff16815260200190815260200160002060006101000a81549060ff02191690555b3373ffffffffffffffffffffffffffffffffffffffff168173ffffffffffffffffffffffffffffffffffffffff167f50546e66e5f44d728365dc3908c63bc5cfeeab470722c1677e3073a6ac294aa160405160405180910390a350565b600e60009054906101000a900473ffffffffffffffffffffffffffffffffffffffff1681565b61315c3387612c97565b15156131b3576040517f08c379a000000000000000000000000000000000000000000000000000000000815260040180806020018281038252602c815260200180615975602c913960400191505060405180910390fd5b61324833878787878080601f016020809104026020016040519081016040528093929190818152602001838380828437600081840152601f19601f8201169050808301925050505050505086868080601f016020809104026020016040519081016040528093929190818152602001838380828437600081840152601f19601f82011690508083019250505050505050614f52565b505050505050565b6132b133338585858080601f016020809104026020016040519081016040528093929190818152602001838380828437600081840152601f19601f820116905080830192505050505050506020604051908101604052806000815250614f52565b505050565b600073ffffffffffffffffffffffffffffffffffffffff168273ffffffffffffffffffffffffffffffffffffffff161415151561333e576040517f08c379a0000000000000000000000000000000000000000000000000000000008152600401808060200182810382526023815260200180615a1f6023913960400191505060405180910390fd5b80600960008573ffffffffffffffffffffffffffffffffffffffff1673ffffffffffffffffffffffffffffffffffffffff16815260200190815260200160002060008473ffffffffffffffffffffffffffffffffffffffff1673ffffffffffffffffffffffffffffffffffffffff168152602001908152602001600020819055508173ffffffffffffffffffffffffffffffffffffffff168373ffffffffffffffffffffffffffffffffffffffff167f8c5be1e5ebec7d5bd14f71427d1e84f3dd0314c0f7b2291e5b200ac8c7c3b925836040518082815260200191505060405180910390a3505050565b60008060009054906101000a900473ffffffffffffffffffffffffffffffffffffffff1673ffffffffffffffffffffffffffffffffffffffff1663aabbb8ca877f29ddb589b1fb5fc7cf394961c1adf5f8c6454761adf795e67fe149f658abe8956001026040518363ffffffff167c0100000000000000000000000000000000000000000000000000000000028152600401808373ffffffffffffffffffffffffffffffffffffffff1673ffffffffffffffffffffffffffffffffffffffff1681526020018281526020019250505060206040518083038186803b15801561351057600080fd5b505afa158015613524573d6000803e3d6000fd5b505050506040513d602081101561353a57600080fd5b81019080805190602001909291905050509050600073ffffffffffffffffffffffffffffffffffffffff168173ffffffffffffffffffffffffffffffffffffffff16141515613781578073ffffffffffffffffffffffffffffffffffffffff166375ab97828888888888886040518763ffffffff167c0100000000000000000000000000000000000000000000000000000000028152600401808773ffffffffffffffffffffffffffffffffffffffff1673ffffffffffffffffffffffffffffffffffffffff1681526020018673ffffffffffffffffffffffffffffffffffffffff1673ffffffffffffffffffffffffffffffffffffffff1681526020018573ffffffffffffffffffffffffffffffffffffffff1673ffffffffffffffffffffffffffffffffffffffff1681526020018481526020018060200180602001838103835285818151815260200191508051906020019080838360005b838110156136b0578082015181840152602081019050613695565b50505050905090810190601f1680156136dd5780820380516001836020036101000a031916815260200191505b50838103825284818151815260200191508051906020019080838360005b838110156137165780820151818401526020810190506136fb565b50505050905090810190601f1680156137435780820380516001836020036101000a031916815260200191505b5098505050505050505050600060405180830381600087803b15801561376857600080fd5b505af115801561377c573d6000803e3d6000fd5b505050505b50505050505050565b6137dc83600160008873ffffffffffffffffffffffffffffffffffffffff1673ffffffffffffffffffffffffffffffffffffffff16815260200190815260200160002054613a7790919063ffffffff16565b600160008773ffffffffffffffffffffffffffffffffffffffff1673ffffffffffffffffffffffffffffffffffffffff1681526020019081526020016000208190555061387183600160008773ffffffffffffffffffffffffffffffffffffffff1673ffffffffffffffffffffffffffffffffffffffff1681526020019081526020016000205461524590919063ffffffff16565b600160008673ffffffffffffffffffffffffffffffffffffffff1673ffffffffffffffffffffffffffffffffffffffff168152602001908152602001600020819055508373ffffffffffffffffffffffffffffffffffffffff168573ffffffffffffffffffffffffffffffffffffffff168773ffffffffffffffffffffffffffffffffffffffff167f06b541ddaa720db2b10a4d0cdac39b8d360425fc073085fac19bc82614677987868686604051808481526020018060200180602001838103835285818151815260200191508051906020019080838360005b8381101561396757808201518184015260208101905061394c565b50505050905090810190601f1680156139945780820380516001836020036101000a031916815260200191505b50838103825284818151815260200191508051906020019080838360005b838110156139cd5780820151818401526020810190506139b2565b50505050905090810190601f1680156139fa5780820380516001836020036101000a031916815260200191505b509550505050505060405180910390a48373ffffffffffffffffffffffffffffffffffffffff168573ffffffffffffffffffffffffffffffffffffffff167fddf252ad1be2c89b69c2b068fc378daa952ba7f163c4a11628f55a4df523b3ef856040518082815260200191505060405180910390a3505050505050565b6000828211151515613af1576040517f08c379a000000000000000000000000000000000000000000000000000000000815260040180806020018281038252601e8152602001807f536166654d6174683a207375627472616374696f6e206f766572666c6f77000081525060200191505060405180910390fd5b600082840390508091505092915050565b60008060009054906101000a900473ffffffffffffffffffffffffffffffffffffffff1673ffffffffffffffffffffffffffffffffffffffff1663aabbb8ca877fb281fc8c12954d22544db45de3159a39272895b169a852b314f9cc762e44c53b6001026040518363ffffffff167c0100000000000000000000000000000000000000000000000000000000028152600401808373ffffffffffffffffffffffffffffffffffffffff1673ffffffffffffffffffffffffffffffffffffffff1681526020018281526020019250505060206040518083038186803b158015613be957600080fd5b505afa158015613bfd573d6000803e3d6000fd5b505050506040513d6020811015613c1357600080fd5b81019080805190602001909291905050509050600073ffffffffffffffffffffffffffffffffffffffff168173ffffffffffffffffffffffffffffffffffffffff16141515613e5d578073ffffffffffffffffffffffffffffffffffffffff166223de298989898989896040518763ffffffff167c0100000000000000000000000000000000000000000000000000000000028152600401808773ffffffffffffffffffffffffffffffffffffffff1673ffffffffffffffffffffffffffffffffffffffff1681526020018673ffffffffffffffffffffffffffffffffffffffff1673ffffffffffffffffffffffffffffffffffffffff1681526020018573ffffffffffffffffffffffffffffffffffffffff1673ffffffffffffffffffffffffffffffffffffffff1681526020018481526020018060200180602001838103835285818151815260200191508051906020019080838360005b83811015613d88578082015181840152602081019050613d6d565b50505050905090810190601f168015613db55780820380516001836020036101000a031916815260200191505b50838103825284818151815260200191508051906020019080838360005b83811015613dee578082015181840152602081019050613dd3565b50505050905090810190601f168015613e1b5780820380516001836020036101000a031916815260200191505b5098505050505050505050600060405180830381600087803b158015613e4057600080fd5b505af1158015613e54573d6000803e3d6000fd5b50505050613edc565b8115613edb57613e828673ffffffffffffffffffffffffffffffffffffffff166152cf565b151515613eda576040517f08c379a000000000000000000000000000000000000000000000000000000000815260040180806020018281038252604d815260200180615904604d913960600191505060405180910390fd5b5b5b5050505050505050565b600080831415613ef95760009050613f6a565b60008284029050828482811515613f0c57fe5b04141515613f65576040517f08c379a00000000000000000000000000000000000000000000000000000000081526004018080602001828103825260218152602001806158e36021913960400191505060405180910390fd5b809150505b92915050565b60008082111515613fe9576040517f08c379a000000000000000000000000000000000000000000000000000000000815260040180806020018281038252601a8152602001807f536166654d6174683a206469766973696f6e206279207a65726f00000000000081525060200191505060405180910390fd5b60008284811515613ff657fe5b0490508091505092915050565b600080600c60009054906101000a900473ffffffffffffffffffffffffffffffffffffffff16905060008173ffffffffffffffffffffffffffffffffffffffff1663db006a75866040518263ffffffff167c010000000000000000000000000000000000000000000000000000000002815260040180828152602001915050602060405180830381600087803b15801561409c57600080fd5b505af11580156140b0573d6000803e3d6000fd5b505050506040513d60208110156140c657600080fd5b810190808051906020019092919050505014151561412f576040517f08c379a000000000000000000000000000000000000000000000000000000000815260040180806020018281038252602e8152602001806159f1602e913960400191505060405180910390fd5b60008173ffffffffffffffffffffffffffffffffffffffff1663182df0f56040518163ffffffff167c010000000000000000000000000000000000000000000000000000000002815260040160206040518083038186803b15801561419357600080fd5b505afa1580156141a7573d6000803e3d6000fd5b505050506040513d60208110156141bd57600080fd5b810190808051906020019092919050505090506141fd670de0b6b3a76400006141ef8388613ee690919063ffffffff16565b613f7090919063ffffffff16565b92503073ffffffffffffffffffffffffffffffffffffffff168473ffffffffffffffffffffffffffffffffffffffff16141515614282576142818484600e60009054906101000a900473ffffffffffffffffffffffffffffffffffffffff1673ffffffffffffffffffffffffffffffffffffffff166152e29092919063ffffffff16565b5b505092915050565b600080600d60009054906101000a900473ffffffffffffffffffffffffffffffffffffffff1690508073ffffffffffffffffffffffffffffffffffffffff16639dc29fac84866040518363ffffffff167c0100000000000000000000000000000000000000000000000000000000028152600401808373ffffffffffffffffffffffffffffffffffffffff1673ffffffffffffffffffffffffffffffffffffffff16815260200182815260200192505050602060405180830381600087803b15801561435557600080fd5b505af1158015614369573d6000803e3d6000fd5b505050506040513d602081101561437f57600080fd5b810190808051906020019092919050505091505092915050565b60008090506000600c60009054906101000a900473ffffffffffffffffffffffffffffffffffffffff1673ffffffffffffffffffffffffffffffffffffffff166370a08231306040518263ffffffff167c0100000000000000000000000000000000000000000000000000000000028152600401808273ffffffffffffffffffffffffffffffffffffffff1673ffffffffffffffffffffffffffffffffffffffff16815260200191505060206040518083038186803b15801561445b57600080fd5b505afa15801561446f573d6000803e3d6000fd5b505050506040513d602081101561448557600080fd5b81019080805190602001909291905050501115156144a55780905061472f565b614514600c60009054906101000a900473ffffffffffffffffffffffffffffffffffffffff1683600e60009054906101000a900473ffffffffffffffffffffffffffffffffffffffff1673ffffffffffffffffffffffffffffffffffffffff166153cf9092919063ffffffff16565b6000600c60009054906101000a900473ffffffffffffffffffffffffffffffffffffffff16905060008173ffffffffffffffffffffffffffffffffffffffff1663a0712d68856040518263ffffffff167c010000000000000000000000000000000000000000000000000000000002815260040180828152602001915050602060405180830381600087803b1580156145ac57600080fd5b505af11580156145c0573d6000803e3d6000fd5b505050506040513d60208110156145d657600080fd5b810190808051906020019092919050505014151561465c576040517f08c379a000000000000000000000000000000000000000000000000000000000815260040180806020018281038252600d8152602001807f4572726f72206d696e74696e670000000000000000000000000000000000000081525060200191505060405180910390fd5b60008173ffffffffffffffffffffffffffffffffffffffff1663182df0f56040518163ffffffff167c010000000000000000000000000000000000000000000000000000000002815260040160206040518083038186803b1580156146c057600080fd5b505afa1580156146d4573d6000803e3d6000fd5b505050506040513d60208110156146ea57600080fd5b8101908080519060200190929190505050905061472a8161471c670de0b6b3a764000087613ee690919063ffffffff16565b613f7090919063ffffffff16565b925050505b919050565b60008090506000600d60009054906101000a900473ffffffffffffffffffffffffffffffffffffffff1673ffffffffffffffffffffffffffffffffffffffff166370a08231306040518263ffffffff167c0100000000000000000000000000000000000000000000000000000000028152600401808273ffffffffffffffffffffffffffffffffffffffff1673ffffffffffffffffffffffffffffffffffffffff16815260200191505060206040518083038186803b1580156147f657600080fd5b505afa15801561480a573d6000803e3d6000fd5b505050506040513d602081101561482057600080fd5b8101908080519060200190929190505050111515614840578090506149b8565b6148af600d60009054906101000a900473ffffffffffffffffffffffffffffffffffffffff1683600e60009054906101000a900473ffffffffffffffffffffffffffffffffffffffff1673ffffffffffffffffffffffffffffffffffffffff166153cf9092919063ffffffff16565b6000600d60009054906101000a900473ffffffffffffffffffffffffffffffffffffffff1690508073ffffffffffffffffffffffffffffffffffffffff166340c10f1930856040518363ffffffff167c0100000000000000000000000000000000000000000000000000000000028152600401808373ffffffffffffffffffffffffffffffffffffffff1673ffffffffffffffffffffffffffffffffffffffff16815260200182815260200192505050602060405180830381600087803b15801561497957600080fd5b505af115801561498d573d6000803e3d6000fd5b505050506040513d60208110156149a357600080fd5b81019080805190602001909291905050509150505b919050565b600073ffffffffffffffffffffffffffffffffffffffff168673ffffffffffffffffffffffffffffffffffffffff1614151515614a45576040517f08c379a000000000000000000000000000000000000000000000000000000000815260040180806020018281038252602281526020018061582f6022913960400191505060405180910390fd5b600073ffffffffffffffffffffffffffffffffffffffff168573ffffffffffffffffffffffffffffffffffffffff1614151515614aea576040517f08c379a00000000000000000000000000000000000000000000000000000000081526004018080602001828103825260208152602001807f4552433737373a2073656e6420746f20746865207a65726f206164647265737381525060200191505060405180910390fd5b614af8878787878787613429565b614b0687878787878761378a565b614b1587878787878787613b02565b50505050505050565b614c3a848573ffffffffffffffffffffffffffffffffffffffff166323b872dd90507c010000000000000000000000000000000000000000000000000000000002858585604051602401808473ffffffffffffffffffffffffffffffffffffffff1673ffffffffffffffffffffffffffffffffffffffff1681526020018373ffffffffffffffffffffffffffffffffffffffff1673ffffffffffffffffffffffffffffffffffffffff1681526020018281526020019350505050604051602081830303815290604052907bffffffffffffffffffffffffffffffffffffffffffffffffffffffff19166020820180517bffffffffffffffffffffffffffffffffffffffffffffffffffffffff83818316178352505050506155db565b50505050565b600073ffffffffffffffffffffffffffffffffffffffff168473ffffffffffffffffffffffffffffffffffffffff1614151515614ce5576040517f08c379a00000000000000000000000000000000000000000000000000000000081526004018080602001828103825260208152602001807f4552433737373a206d696e7420746f20746865207a65726f206164647265737381525060200191505060405180910390fd5b614cfa8360025461524590919063ffffffff16565b600281905550614d5283600160008773ffffffffffffffffffffffffffffffffffffffff1673ffffffffffffffffffffffffffffffffffffffff1681526020019081526020016000205461524590919063ffffffff16565b600160008673ffffffffffffffffffffffffffffffffffffffff1673ffffffffffffffffffffffffffffffffffffffff16815260200190815260200160002081905550614da6856000868686866001613b02565b8373ffffffffffffffffffffffffffffffffffffffff168573ffffffffffffffffffffffffffffffffffffffff167f2fe5be0146f74c5bce36c0b80911af6c7d86ff27e89d5cfa61fc681327954e5d858585604051808481526020018060200180602001838103835285818151815260200191508051906020019080838360005b83811015614e42578082015181840152602081019050614e27565b50505050905090810190601f168015614e6f5780820380516001836020036101000a031916815260200191505b50838103825284818151815260200191508051906020019080838360005b83811015614ea8578082015181840152602081019050614e8d565b50505050905090810190601f168015614ed55780820380516001836020036101000a031916815260200191505b509550505050505060405180910390a38373ffffffffffffffffffffffffffffffffffffffff16600073ffffffffffffffffffffffffffffffffffffffff167fddf252ad1be2c89b69c2b068fc378daa952ba7f163c4a11628f55a4df523b3ef856040518082815260200191505060405180910390a35050505050565b600073ffffffffffffffffffffffffffffffffffffffff168473ffffffffffffffffffffffffffffffffffffffff1614151515614fda576040517f08c379a00000000000000000000000000000000000000000000000000000000081526004018080602001828103825260228152602001806158516022913960400191505060405180910390fd5b614fe985856000868686613429565b614ffe83600254613a7790919063ffffffff16565b60028190555061505683600160008773ffffffffffffffffffffffffffffffffffffffff1673ffffffffffffffffffffffffffffffffffffffff16815260200190815260200160002054613a7790919063ffffffff16565b600160008673ffffffffffffffffffffffffffffffffffffffff1673ffffffffffffffffffffffffffffffffffffffff168152602001908152602001600020819055508373ffffffffffffffffffffffffffffffffffffffff168573ffffffffffffffffffffffffffffffffffffffff167fa78a9be3a7b862d26933ad85fb11d80ef66b8f972d7cbba06621d583943a4098858585604051808481526020018060200180602001838103835285818151815260200191508051906020019080838360005b8381101561513557808201518184015260208101905061511a565b50505050905090810190601f1680156151625780820380516001836020036101000a031916815260200191505b50838103825284818151815260200191508051906020019080838360005b8381101561519b578082015181840152602081019050615180565b50505050905090810190601f1680156151c85780820380516001836020036101000a031916815260200191505b509550505050505060405180910390a3600073ffffffffffffffffffffffffffffffffffffffff168473ffffffffffffffffffffffffffffffffffffffff167fddf252ad1be2c89b69c2b068fc378daa952ba7f163c4a11628f55a4df523b3ef856040518082815260200191505060405180910390a35050505050565b60008082840190508381101515156152c5576040517f08c379a000000000000000000000000000000000000000000000000000000000815260040180806020018281038252601b8152602001807f536166654d6174683a206164646974696f6e206f766572666c6f77000000000081525060200191505060405180910390fd5b8091505092915050565b600080823b905060008111915050919050565b6153ca838473ffffffffffffffffffffffffffffffffffffffff1663a9059cbb90507c0100000000000000000000000000000000000000000000000000000000028484604051602401808373ffffffffffffffffffffffffffffffffffffffff1673ffffffffffffffffffffffffffffffffffffffff16815260200182815260200192505050604051602081830303815290604052907bffffffffffffffffffffffffffffffffffffffffffffffffffffffff19166020820180517bffffffffffffffffffffffffffffffffffffffffffffffffffffffff83818316178352505050506155db565b505050565b60006154eb828573ffffffffffffffffffffffffffffffffffffffff1663dd62ed3e30876040518363ffffffff167c0100000000000000000000000000000000000000000000000000000000028152600401808373ffffffffffffffffffffffffffffffffffffffff1673ffffffffffffffffffffffffffffffffffffffff1681526020018273ffffffffffffffffffffffffffffffffffffffff1673ffffffffffffffffffffffffffffffffffffffff1681526020019250505060206040518083038186803b1580156154a257600080fd5b505afa1580156154b6573d6000803e3d6000fd5b505050506040513d60208110156154cc57600080fd5b810190808051906020019092919050505061524590919063ffffffff16565b90506155d5848573ffffffffffffffffffffffffffffffffffffffff1663095ea7b390507c0100000000000000000000000000000000000000000000000000000000028584604051602401808373ffffffffffffffffffffffffffffffffffffffff1673ffffffffffffffffffffffffffffffffffffffff16815260200182815260200192505050604051602081830303815290604052907bffffffffffffffffffffffffffffffffffffffffffffffffffffffff19166020820180517bffffffffffffffffffffffffffffffffffffffffffffffffffffffff83818316178352505050506155db565b50505050565b6155fa8273ffffffffffffffffffffffffffffffffffffffff166152cf565b151561566e576040517f08c379a000000000000000000000000000000000000000000000000000000000815260040180806020018281038252601f8152602001807f5361666545524332303a2063616c6c20746f206e6f6e2d636f6e74726163740081525060200191505060405180910390fd5b600060608373ffffffffffffffffffffffffffffffffffffffff16836040518082805190602001908083835b6020831015156156bf578051825260208201915060208101905060208303925061569a565b6001836020036101000a0380198251168184511680821785525050505050509050019150506000604051808303816000865af19150503d8060008114615721576040519150601f19603f3d011682016040523d82523d6000602084013e615726565b606091505b50915091508115156157a0576040517f08c379a00000000000000000000000000000000000000000000000000000000081526004018080602001828103825260208152602001807f5361666545524332303a206c6f772d6c6576656c2063616c6c206661696c656481525060200191505060405180910390fd5b600081511115615828578080602001905160208110156157bf57600080fd5b81019080805190602001909291905050501515615827576040517f08c379a000000000000000000000000000000000000000000000000000000000815260040180806020018281038252602a8152602001806159a1602a913960400191505060405180910390fd5b5b5050505056fe4552433737373a2073656e642066726f6d20746865207a65726f20616464726573734552433737373a206275726e2066726f6d20746865207a65726f20616464726573734552433737373a20617574686f72697a696e672073656c66206173206f70657261746f7273656e64657242616c616e63652073686f756c64206265203e3d20616d6f756e74207265717565737465644552433737373a207265766f6b696e672073656c66206173206f70657261746f72536166654d6174683a206d756c7469706c69636174696f6e206f766572666c6f774552433737373a20746f6b656e20726563697069656e7420636f6e747261637420686173206e6f20696d706c656d656e74657220666f7220455243373737546f6b656e73526563697069656e744552433737373a207472616e7366657220746f20746865207a65726f20616464726573734552433737373a2063616c6c6572206973206e6f7420616e206f70657261746f7220666f7220686f6c6465725361666545524332303a204552433230206f7065726174696f6e20646964206e6f7420737563636565644552433737373a207472616e736665722066726f6d20746865207a65726f2061646472657373536f6d657468696e672077656e742077726f6e67207768656e2072656465656d696e6720696e2063546f6b656e734552433737373a20617070726f766520746f20746865207a65726f2061646472657373a165627a7a723058200c140718ed36a88e798a24b8a231d31f03fe1ebedd08b7d61f897f855fb53b8e0029",
  "source": "pragma solidity ^0.5.2;\n\nimport \"openzeppelin-solidity/contracts/token/ERC20/IERC20.sol\";\nimport \"openzeppelin-solidity/contracts/token/ERC777/ERC777.sol\";\nimport \"openzeppelin-solidity/contracts/utils/ReentrancyGuard.sol\";\n\nimport \"openzeppelin-solidity/contracts/math/SafeMath.sol\";\nimport \"openzeppelin-solidity/contracts/token/ERC20/SafeERC20.sol\";\n\nimport \"./interfaces/CERC20.sol\";\nimport \"./interfaces/iERC20.sol\";\nimport \"./IdleHelp.sol\";\n\n// TODO\n// in rebalanceCheck we should also check how much\n// the interest rate changes due to the new liquidity we provide\n\n// TODO we should inform the user of the eventual excess of token that can be redeemed directly in Fulcrum\n\n// TODO Add fee ?\n\ncontract IdleDAI is ERC777, ReentrancyGuard {\n  using SafeERC20 for IERC20;\n  using SafeMath for uint256;\n\n  address public owner;\n\n  address public cToken; // cTokens have 8 decimals\n  address public iToken; // iTokens have 18 decimals\n  address public token;\n  address public bestToken;\n\n  uint256 public blocksInAYear;\n  uint256 public minRateDifference;\n\n  /**\n   * @dev constructor\n   */\n  constructor(address _cToken, address _iToken, address _token)\n    public\n    ERC777(\"IdleDAI\", \"IDLEDAI\", new address[](0)) {\n      owner = msg.sender;\n      cToken = _cToken;\n      iToken = _iToken;\n      token = _token;\n      // TODO get it from compound contract directly\n      blocksInAYear = 2102400; // ~15 sec per block\n      minRateDifference = 500000000000000000; // 0.5% min\n  }\n\n  // onlyOwner\n  function setMinRateDifference(uint256 _rate)\n    external {\n      require(msg.sender == owner, 'Only owner');\n      minRateDifference = _rate;\n  }\n  function setBlocksInAYear(uint256 _blocks)\n    external {\n      require(msg.sender == owner, 'Only owner');\n      blocksInAYear = _blocks;\n  }\n\n  // public\n\n  /**\n   * @dev User should 'approve' _amount tokens before calling mintIndexToken\n   */\n  function mintIndexToken(uint256 _amount)\n    public nonReentrant\n    returns (uint256 mintedTokens) {\n      /* require(_amount > 0, \"Amount is not > 0\"); */\n      // get a handle for the underlying asset contract\n      IERC20 underlying = IERC20(token);\n      // transfer to this contract\n      underlying.safeTransferFrom(msg.sender, address(this), _amount);\n\n      rebalance();\n\n      uint256 mintedUnderlyingTokens;\n      if (bestToken == cToken) {\n        mintedUnderlyingTokens = _mintCTokens(_amount);\n      } else {\n        mintedUnderlyingTokens = _mintITokens(_amount);\n      }\n\n      if (bestToken == address(0)) {\n        _mint(msg.sender, msg.sender, _amount, \"\", \"\"); // 1:1\n        mintedTokens = _amount;\n      } else {\n        uint256 currTokenPrice = IdleHelp.getPriceInToken(cToken, iToken, bestToken, this.balanceOf(address(this)));\n        mintedTokens = _amount.div(currTokenPrice);\n      }\n  }\n\n  /**\n   * @dev here we calc the pool share of the cTokens | iTokens one can withdraw\n   */\n  function redeemIndexToken(uint256 _amount)\n    public nonReentrant\n    returns (uint256 tokensRedeemed) {\n    uint256 senderBalance = this.balanceOf(msg.sender);\n    require(senderBalance > 0, \"senderBalance should be > 0\");\n    require(senderBalance >= _amount, \"senderBalance should be >= amount requested\");\n\n    uint256 moonSupply = this.totalSupply();\n    require(moonSupply > 0, 'No IDLEDAI have been issued');\n\n    if (bestToken == cToken) {\n      uint256 cPoolBalance = IERC20(cToken).balanceOf(address(this));\n      uint256 cDAItoRedeem = _amount.mul(cPoolBalance).div(moonSupply);\n      tokensRedeemed = _redeemCTokens(cDAItoRedeem, msg.sender); //TODO fee?\n    } else {\n      uint256 iPoolBalance = IERC20(iToken).balanceOf(address(this));\n      uint256 iDAItoRedeem = _amount.mul(iPoolBalance).div(moonSupply);\n      // TODO we should inform the user of the eventual excess of token that can be redeemed directly in Fulcrum\n      tokensRedeemed = _redeemITokens(iDAItoRedeem, msg.sender);\n    }\n    this.burn(_amount, '');\n\n    /* investedBalances[msg.sender] = investedBalances[msg.sender].sub(tokensRedeemed); */\n  }\n\n  /**\n   * @dev Convert cToken pool in iToken pool (or the contrary) if needed\n   * Everyone should be incentivized in calling this method\n   */\n  function rebalance()\n    public {\n      (bool shouldRebalance, address newBestTokenAddr) = IdleHelp.rebalanceCheck(cToken, iToken, bestToken, blocksInAYear, minRateDifference);\n      if (!shouldRebalance) {\n        return;\n      }\n\n      if (bestToken != address(0)) {\n        // bestToken is the 'old' best token\n        if (bestToken == cToken) {\n          _redeemCTokens(IERC20(cToken).balanceOf(address(this)), address(this)); // token are now in this contract\n          _mintITokens(IERC20(token).balanceOf(address(this)));\n        } else {\n          _redeemITokens(IERC20(iToken).balanceOf(address(this)), address(this));\n          _mintCTokens(IERC20(token).balanceOf(address(this)));\n        }\n      }\n\n      // Update best token address\n      bestToken = newBestTokenAddr;\n  }\n  /**\n   * @dev here we are redeeming unclaimed token (from iToken contract) to this contracts\n   * then converting the claimedTokens in the bestToken after rebalancing\n   * Everyone should be incentivized in calling this method\n   */\n  function claimITokens()\n    public\n    returns (uint256 claimedTokens) {\n      claimedTokens = iERC20(iToken).claimLoanToken();\n      if (claimedTokens <= 0) {\n        return 0;\n      }\n\n      rebalance();\n      if (bestToken == cToken) {\n        _mintCTokens(claimedTokens);\n      } else {\n        _mintITokens(claimedTokens);\n      }\n\n      return claimedTokens;\n  }\n\n  // internal\n  function _mintCTokens(uint256 _amount)\n    internal\n    returns (uint256 cTokens) {\n      // get a handle for the corresponding cToken contract\n      cTokens = 0;\n      if (IERC20(cToken).balanceOf(address(this)) <= 0) {\n        return cTokens;\n      }\n      // approve the transfer to cToken contract\n      IERC20(token).safeIncreaseAllowance(cToken, _amount);\n\n      CERC20 _cToken = CERC20(cToken);\n      // mint the cTokens and assert there is no error\n      require(_cToken.mint(_amount) == 0, \"Error minting\");\n      // cTokens are now in this contract\n\n      // generic solidity formula is exchangeRateMantissa = (underlying / cTokens) * 1e18\n      uint256 exchangeRateMantissa = _cToken.exchangeRateStored(); // (exchange_rate * 1e18)\n      // so cTokens = (underlying * 1e18) / exchangeRateMantissa\n      cTokens = _amount.mul(10**18).div(exchangeRateMantissa);\n  }\n  function _mintITokens(uint256 _amount)\n    internal\n    returns (uint256 iTokens) {\n      iTokens = 0;\n      if (IERC20(iToken).balanceOf(address(this)) <= 0) {\n        return iTokens;\n      }\n      // approve the transfer to cToken contract\n      IERC20(token).safeIncreaseAllowance(iToken, _amount);\n      // get a handle for the corresponding iToken contract\n      iERC20 _iToken = iERC20(iToken);\n      // mint the iTokens\n      iTokens = _iToken.mint(address(this), _amount);\n  }\n\n  function _redeemCTokens(uint256 _amount, address _account)\n    internal\n    returns (uint256 tokens) {\n      CERC20 _cToken = CERC20(cToken);\n      // redeem all user's underlying\n      require(_cToken.redeem(_amount) == 0, \"Something went wrong when redeeming in cTokens\");\n\n      // generic solidity formula is exchangeRateMantissa = (underlying / cTokens) * 1e18\n      uint256 exchangeRateMantissa = _cToken.exchangeRateStored(); // exchange_rate * 1e18\n      // so underlying = (exchangeRateMantissa * cTokens) / 1e18\n      tokens = _amount.mul(exchangeRateMantissa).div(10**18);\n\n      if (_account != address(this)) {\n        IERC20(token).safeTransfer(_account, tokens);\n      }\n  }\n  function _redeemITokens(uint256 _amount, address _account)\n    internal\n    returns (uint256 tokens) {\n      iERC20 _iToken = iERC20(iToken);\n      tokens = _iToken.burn(_account, _amount);\n  }\n}\n",
  "sourcePath": "/home/bugman/Projects/idle/contracts/IdleDAI.sol",
  "compiler": {
    "name": "solc",
    "version": "0.5.2+commit.1df8f40c.Emscripten.clang"
  },
  "schemaVersion": "3.0.11",
  "updatedAt": "2019-07-03T16:51:37.907Z",
  "devdoc": {
    "methods": {
      "allowance(address,address)": {
        "details": "See `IERC20.allowance`.     * Note that operator and allowance concepts are orthogonal: operators may not have allowance, and accounts with allowance may not be operators themselves."
      },
      "approve(address,uint256)": {
        "details": "See `IERC20.approve`.     * Note that accounts cannot have allowance issued by their operators."
      },
      "authorizeOperator(address)": {
        "details": "See `IERC777.authorizeOperator`."
      },
      "balanceOf(address)": {
        "details": "Returns the amount of tokens owned by an account (`tokenHolder`)."
      },
      "burn(uint256,bytes)": {
        "details": "See `IERC777.burn`.     * Also emits a `Transfer` event for ERC20 compatibility."
      },
      "claimITokens()": {
        "details": "here we are redeeming unclaimed token (from iToken contract) to this contracts then converting the claimedTokens in the bestToken after rebalancing Everyone should be incentivized in calling this method"
      },
      "constructor": {
        "details": "constructor"
      },
      "decimals()": {
        "details": "See `ERC20Detailed.decimals`.     * Always returns 18, as per the [ERC777 EIP](https://eips.ethereum.org/EIPS/eip-777#backward-compatibility)."
      },
      "defaultOperators()": {
        "details": "See `IERC777.defaultOperators`."
      },
      "granularity()": {
        "details": "See `IERC777.granularity`.     * This implementation always returns `1`."
      },
      "isOperatorFor(address,address)": {
        "details": "See `IERC777.isOperatorFor`."
      },
      "mintIndexToken(uint256)": {
        "details": "User should 'approve' _amount tokens before calling mintIndexToken"
      },
      "name()": {
        "details": "See `IERC777.name`."
      },
      "operatorBurn(address,uint256,bytes,bytes)": {
        "details": "See `IERC777.operatorBurn`.     * Emits `Sent` and `Transfer` events."
      },
      "operatorSend(address,address,uint256,bytes,bytes)": {
        "details": "See `IERC777.operatorSend`.     * Emits `Sent` and `Transfer` events."
      },
      "rebalance()": {
        "details": "Convert cToken pool in iToken pool (or the contrary) if needed Everyone should be incentivized in calling this method"
      },
      "redeemIndexToken(uint256)": {
        "details": "here we calc the pool share of the cTokens | iTokens one can withdraw"
      },
      "revokeOperator(address)": {
        "details": "See `IERC777.revokeOperator`."
      },
      "send(address,uint256,bytes)": {
        "details": "See `IERC777.send`.     * Also emits a `Transfer` event for ERC20 compatibility."
      },
      "symbol()": {
        "details": "See `IERC777.symbol`."
      },
      "totalSupply()": {
        "details": "See `IERC777.totalSupply`."
      },
      "transfer(address,uint256)": {
        "details": "See `IERC20.transfer`.     * Unlike `send`, `recipient` is _not_ required to implement the `tokensReceived` interface if it is a contract.     * Also emits a `Sent` event."
      },
      "transferFrom(address,address,uint256)": {
        "details": "See `IERC20.transferFrom`.    * Note that operator and allowance concepts are orthogonal: operators cannot call `transferFrom` (unless they have allowance), and accounts with allowance cannot call `operatorSend` (unless they are operators).    * Emits `Sent` and `Transfer` events."
      }
    }
  },
  "userdoc": {
    "methods": {}
  }
}